:020000040800F2
:1000000000000120AD2F00080D0B00080F0B0008A9
:10001000110B0008130B0008150B0008000000006E
:10002000000000000000000000000000112B00088C
:10003000170B000800000000B12B0008190B000886
:10004000FD2F0008FD2F0008FD2F0008FD2F0008E0
:10005000FD2F0008FD2F0008FD2F0008FD2F0008D0
:10006000FD2F0008FD2F0008FD2F0008FD2F0008C0
:10007000FD2F0008FD2F0008FD2F0008FD2F0008B0
:10008000FD2F0008FD2F0008FD2F0008FD2F0008A0
:10009000FD2F0008FD2F0008FD2F0008FD2F000890
:1000A000FD2F0008FD2F0008FD2F0008FD2F000880
:1000B000FD2F00080000000000000000FD2F0008D8
:1000C000FD2F00080000000000000000FD2F0008C8
:1000D00000000000FD2F0008FD2F000800000000B8
:1000E000FD2F0008FD2F00080000000000000000A8
:1000F0000000000000000000000000000000000000
:10010000000000000000000000000000FD2F0008BB
:100110000000000000000000FD2F0008FD2F000877
:10012000FD2F0008FD2F0008FD2F0008FD2F0008FF
:10013000FD2F00080000000000000000000000008B
:10014000FD2F0008FD2F0008FD2F0008FD2F0008DF
:10015000FD2F0008FD2F0008FD2F0008FD2F0008CF
:10016000FD2F0008FD2F0008FD2F000800000000F3
:10017000FD2F0008FD2F0008000000000000000017
:10018000FD2F0008FD2F0008FD2F000800000000D3
:1001900010B5054C237833B9044B13B10448AFF3C1
:1001A00000800123237010BD10000020000000001B
:1001B0005830000808B5034B1BB103490348AFF39F
:1001C000008008BD00000000140000205830000826
:1001D00053B94AB9002908BF00281CBF4FF0FF31AE
:1001E0004FF0FF3000F072B9ADF1080C6DE904CEAC
:1001F00000F006F8DDF804E0DDE9022304B0704702
:100200002DE9F047089E04468846002B4BD18A42D0
:10021000154667D9B2FA82F24AB1C2F1200701FA53
:1002200002F320FA07F7954047EA030894404FEAA3
:10023000154E230CB8FBFEF71FFA85FC0EFB178842
:1002400043EA084307FB0CF1994209D9EB1807F17F
:10025000FF3080F01B81994240F21881023F2B440D
:100260005B1AA4B2B3FBFEF00EFB103344EA034466
:1002700000FB0CFCA44509D92C1900F1FF3380F0D8
:100280000781A44540F2048102382C4440EA07402B
:10029000A4EB0C0400271EB1D4400023C6E90043A0
:1002A0003946BDE8F0878B4209D9002E00F0EB807B
:1002B0000027C6E9000138463946BDE8F087B3FAA1
:1002C00083F7002F47D18B4202D3824200F2FA809B
:1002D000841A61EB030301209846002EE0D0C6E9A2
:1002E0000048DDE702B9FFDEB2FA82F2002A40F0F0
:1002F0008F80491B4FEA154E1FFA85F80127B1FB85
:10030000FEFC230C0EFB1C1143EA014308FB0CF11D
:10031000994207D9EB180CF1FF3002D2994200F252
:10032000CD808446591AA3B2B1FBFEF00EFB101427
:1003300043EA044408FB00F8A04507D92C1900F152
:10034000FF3302D2A04500F2B6801846A4EB0804A1
:1003500040EA0C409FE7C7F1200CBB4022FA0CFE9C
:100360004EEA030E01FA07F420FA0CF521FA0CF319
:100370004FEA1E482543B3FBF8F92C0C08FB193350
:100380001FFA8EFA44EA034309FB0AF49C4202FA7C
:1003900007F200FA07F10BD91EEB030309F1FF3056
:1003A00080F087809C4240F28480A9F10209734466
:1003B0001B1BADB2B3FBF8F008FB103345EA034456
:1003C00000FB0AFAA24508D91EEB040400F1FF3332
:1003D0006BD2A24569D90238744440EA0940A0FBB7
:1003E0000289A4EB0A044C45C2464B4654D351D073
:1003F000002E69D0B1EB0A0564EB030404FA0CFC8F
:10040000FD40FC404CEA0505C6E90054002747E7DB
:10041000C2F1200320FA03F7954001FA02F021FA15
:1004200003F34FEA154E3843010CB3FBFEF71FFAF6
:1004300085F80EFB173341EA034107FB08F38B42B3
:1004400004FA02F407D9691807F1FF3C2FD28B4256
:100450002DD9023F2944CB1A81B2B3FBFEF00EFB2B
:10046000103341EA034100FB08F38B4207D96918B6
:1004700000F1FF3C17D28B4215D902382944C91A22
:1004800040EA07473BE73746304609E70746E7E6D5
:100490001846FBE64145ABD2B8EB020A69EB0E0207
:1004A00001381346A4E76046E9E7184695E7674632
:1004B000D1E781467CE702382C4447E7ACF1020CD7
:1004C0002B442FE7384608E73746E9E6704700BF78
:1004D0002DE9F001490003248C40E343DF17046851
:1004E000456803FB05F504FB0756A4FB0378B044FD
:1004F0008A4047EA020448EAE275C0E90045BDE8DF
:10050000F001704730B4036845684900C1F1200428
:10051000A1F1200223FA01F005FA04F4204325FAA0
:1005200002F2104300F0030030BC704710B4032403
:1005300004FA01F3DC43036803FB04F38A4013432A
:1005400003605DF8044B70470068C84000F001008C
:100550007047000000B583B0074A00231360536062
:100560000193012200924FF480720449044802F082
:1005700031F803B05DF804FB880F0020D430000888
:1005800071060008F8B5054617461E46204C0A4677
:1005900001462046FFF79CFF103C05F10C021D4B65
:1005A000A3FB07173F0924F8127005F12C02A3FBE7
:1005B0000636360924F812609DF81820294604F5FD
:1005C0001B70FFF7B3FF9DF81C20294604F5167039
:1005D000FFF77EFF05F13603089A44F823209DF8C3
:1005E0002420294604F51870FFF772FF05F1560321
:1005F0000A9A44F823209DF82C20294604F51A7005
:10060000FFF794FF76350C9B44F82530F8BD00BF0A
:10061000980F00201F85EB51012303FA00F0024AD6
:100620001368034313607047880F002070B50446B9
:10063000084615461E462146FFF764FFA84200D033
:1006400070BD56F82430002BFAD09847F8E770B503
:100650000446084615461E462146FFF775FFA84288
:1006600000D070BD56F82430002BFAD09847F8E738
:1006700070B582B099E04F4E3346022206F5C07144
:100680002846FFF7D3FF2946A6F1D800FFF75CFF05
:1006900038B104F14C03A6F1D802002122F813105E
:1006A0005AE0454B04F14C0233F8122004F12C01BE
:1006B00033F811309A4211D82AB33F4904F14C0261
:1006C00031F81230013321F8123001F5AC730222F7
:1006D00001F518712846FFF7A9FF3DE0374E0022CB
:1006E00029463046FFF722FF311F04F14C03002258
:1006F00021F8132006F5EA73012206F51971284640
:10070000FFF7A5FF28E02E490B46012201F5847171
:100710002846FFF78BFFD0E7284E012229463046B6
:10072000FFF704FF01222946301DFFF7FFFE311FAE
:1007300004F14C03002221F8132006F1D403012216
:1007400006F515712846FFF771FF05E004F14C032B
:10075000194A002122F8131001341F2C1EDCE5B2C7
:1007600029461648FFF7F0FE002884D12946124892
:10077000FFF7EAFE0028E9D00F4A04F14C0332F8F3
:10078000133004F10C0132F811209342C4D204F169
:100790004C020133084921F81230DDE7064B0022F4
:1007A0001A60322101A802F089F801F083FF01905C
:1007B0000024D2E760100020880F00208C0F00205A
:1007C000E010002010B5094C01220221204600F063
:1007D0003CFB00224FF480714FF0904000F035FB5D
:1007E00000220121204600F030FB10BD000400482B
:1007F00010B5094C00220221204600F026FB012200
:100800004FF480714FF0904000F01FFB0022012157
:10081000204600F01AFB10BD0004004810B5094C3A
:1008200000220221204600F010FB00224FF48071CC
:100830004FF0904000F009FB01221146204600F0E5
:1008400004FB10BD00040048034B036054330B60ED
:1008500080231360704700BF2C00002070B588B063
:10086000002403940494059406940794204BDA6CB6
:1008700042F00202DA64DA6C02F002020192019A9A
:10088000DA6C42F00102DA64DB6C03F001030293DC
:10089000029B184E22460321304600F0D6FA22462B
:1008A0004FF480714FF0904000F0CFFA0323039390
:1008B000012504950594069403A9304600F0FEF93D
:1008C0004FF48073039304950594069403A94FF0A5
:1008D000904000F0F3F94FF40063039304940594FF
:1008E00003A94FF0904000F0E9F908B070BD00BFD7
:1008F000001002400004004808B50948094B036095
:100900004FF4E133436000238360C36003610C2232
:1009100042618361C3610362436201F0EEFB08BD83
:10092000FC1100200038014000B583B003E028210D
:1009300001A801F0C3FF01F0BDFE01904FF400617A
:100940004FF0904000F07AFA0028F0D0024B18786F
:10095000FFF762FEEBE700BF8002002008B5012030
:1009600001F03DFCFBE730B5ADB0242200211CA80E
:1009700002F06AFB002416941794189419941A94A0
:100980005422214601A802F05FFB10231B9301258E
:1009900021956023239302232593269527952822CA
:1009A0002892072229922A932B931BA800F044FB3C
:1009B0000F23169303231793189419941A94042160
:1009C00016A800F07FFE0195099401A801F006F831
:1009D0004FF4007000F046FA2DB030BD00B591B074
:1009E00000F0EEF8FFF7BFFFFFF738FFFFF784FFD7
:1009F000FFF7B0FD002601960124009433464FF422
:100A000080721449144801F0E5FD144B1878144B1A
:100A100006930594134B049302230393124A029204
:100A20000193009640F6B8334FF47A722146FFF7EF
:100A3000A9FD09AC0D4D0FCD0FC495E8070084E862
:100A40000700314609A801F094FB094B186001F03A
:100A50008BFBFEE7DC30000829090008800200203B
:100A60001D080008F1070008C507000870300008DD
:100A7000F811002082B00A4B1A6E42F001021A6689
:100A80001A6E02F001020092009A9A6D42F08052B2
:100A90009A659B6D03F080530193019B02B07047F0
:100AA0000010024000B589B000230393049305931E
:100AB000069307930268144B9A4202D009B05DF87E
:100AC00004FB03F558431A6E42F480421A661A6E0C
:100AD00002F480420192019ADA6C42F00102DA6477
:100AE000DB6C03F001030293029B4FF4C06303939A
:100AF00002230493032306930723079303A94FF0CC
:100B0000904000F0DBF8D9E7003801407047FEE77D
:100B1000FEE7FEE7FEE7704708B500F061F801F078
:100B20008DFF012801D002F075F808BD0F49D1F8FA
:100B3000883043F47003C1F888300D4B1A6842F0D6
:100B400001021A60002098601A6822F0A85222F46C
:100B500010221A604FF48052DA601A6822F4802260
:100B60001A6098614FF000638B60704700ED00E001
:100B700000100240104B1B780BB90120704710B5D4
:100B800004464FF47A70B0FBF3F30C4A1068B0FBE4
:100B9000F3F000F07DF868B90F2C01D901200AE0CC
:100BA000002221464FF0FF3000F03EF8024B5C601F
:100BB000002000E0012010BD040000200000002003
:100BC00010B5032000F01EF80020FFF7D3FF10B18E
:100BD0000124204610BD0446FFF74CFFF9E7000052
:100BE000034B1B78034A11680B441360704700BF26
:100BF000040000207C120020014B1868704700BFE1
:100C00007C120020074AD36823F4E0631B041B0C0A
:100C1000000200F4E060184340F0BF6040F4003090
:100C2000D060704700ED00E030B4174BDB68C3F3D1
:100C30000223C3F10704042C28BF04241D1D062D24
:100C400018D9033B4FF0FF3505FA04F421EA0401FB
:100C5000994005FA03F322EA0303194300280BDB4A
:100C60000901C9B200F1604000F5614080F800134D
:100C700030BC70470023E5E700F00F000901C9B25E
:100C8000024B1954F4E700BF00ED00E014ED00E062
:100C90000138B0F1807F0AD2064B5860064AF02135
:100CA00082F823100020986007221A607047012004
:100CB000704700BF10E000E000ED00E0F0B583B049
:100CC000002396E086685F000325BD4026EA0506FE
:100CD000CD68BD4035438560466826EA04064D6808
:100CE000C5F300149C4034434460C5685F0003248E
:100CF000BC40E44325408E68BE402E43C6604D682C
:100D0000022D01D0122D13D1DE08083650F826E04E
:100D100003F007054FEA850C0F2505FA0CF52EEABE
:100D2000050E0D6905FA0CF545EA0E0540F826504A
:100D300005682C404D6805F00305BD402C43046058
:100D40004C6814F0805F53D0384C256E45F0010597
:100D50002566246E04F001040194019C9D08AE1CDC
:100D6000334C54F8267003F00304A6000F24B4405B
:100D700027EA0407B0F1904F51D02E4CA04250D03A
:100D800004F58064A04248D00724B4403C430235B7
:100D9000274E46F82540284C2568D44304EA05062A
:100DA0004F6817F4803F01D042EA0506224D2E60BD
:100DB0006D6804EA05064F6817F4003F01D042EA67
:100DC00005061D4D6E60AD6804EA05064F6817F410
:100DD000801F01D042EA0506174DAE60ED682C4039
:100DE0004E6816F4001F01D042EA0504124AD4608E
:100DF00001330A6832FA03F415D001249C402240E2
:100E0000F6D04D686E1E012E7FF65CAF112D3FF4BB
:100E100059AF122D7FF469AF54E70224B5E70024DF
:100E2000B3E70124B1E703B0F0BD00BF00100240FA
:100E30000000014000040048000401400369194219
:100E400001D100207047012070470AB981627047C4
:100E500081617047024B186800F4C060704700BFA2
:100E600000700040B0F5007F0FD01F4B1B6803F4EB
:100E7000C063B3F5806F34D01B4A136823F4C0639A
:100E800043F48063136000207047174B1B6803F422
:100E9000C063B3F5007F22D0134A136823F4C06304
:100EA00043F400731360114B1A68322303FB02F3FF
:100EB0000F4AA2FB03239B0C013300E0013B0A4ACB
:100EC000526912F4806F01D0002BF7D1064B5B6999
:100ED00013F4806F01D10020704703207047002079
:100EE00070470020704700BF0070004000000020E5
:100EF00083DE1B4330B583B00546204B9B6D13F05A
:100F0000805F0BD0FFF7A6FFB0F5007F17D0802DD4
:100F10001FD82DD0702D2DD000211BE0174CA36DB4
:100F200043F08053A365A36D03F080530193019BAD
:100F3000FFF790FFA36D23F08053A365E4E7802DB6
:100F400003D9A02D03D9022104E0002102E00121F0
:100F500000E003210A4A136823F007030B431360E0
:100F6000136803F007038B4206D0012003B030BDA5
:100F70000221EFE70121EDE70020F7E70010024032
:100F800000200240284A9368D26802F0030213F05E
:100F90000C030AD00C2B06D0042B1FD0082B20D01A
:100FA0000020024610E0012AF6D11F4A126812F012
:100FB000080F0CD11C4AD2F89420C2F303221B491B
:100FC00051F8222043B100200C2B0DD07047164A57
:100FD0001268C2F30312F2E71046F5E71448002244
:100FE000F2E714480022EFE70F4BDB6803F003033E
:100FF000022B15D0032B15D00B4BD868C0F3021071
:101000000130D968C1F3062102FB01F2B2FBF0F214
:10101000D868C0F3416001304000B2FBF0F0D5E782
:10102000034AE9E7034AE7E7001002408C30000872
:101030000024F40000127A00002800F02783F0B5A5
:1010400083B00446AF4B9D6805F00C05DE6806F0E2
:101050000306036813F0100F5BD0E5B10C2D18D018
:10106000A369002B00F0BC80A64A136843F001037B
:101070001360FFF7C1FD0746A24B1B6813F0020F78
:1010800040F09B80FFF7B8FDC01B0228F4D9032372
:1010900008E3012EE4D19B4B1B6813F0020F03D031
:1010A000A369002B00F0F582206A964B1B6813F0B1
:1010B000080F5CD0934B1B6803F0F00398425DD897
:1010C000904B1A6842F008021A601A6822F0F00287
:1010D000216A0A431A605A6822F47F42E16942EAAF
:1010E00001225A60002D61D0FFF74CFF854B9B68B1
:1010F000C3F30313844AD35C03F01F03D840834B2C
:101100001860834B1868FFF735FD0346002840F050
:10111000C982236813F0010F00F08180082D75D07B
:101120000C2D71D06368B3F5803F00F09780B3F564
:10113000A02F00F09980734B1A6822F480321A6055
:101140001A6822F480221A606368002B00F09980EC
:10115000FFF752FD07466B4B1B6813F4003F5ED14F
:10116000FFF74AFDC01B6428F5D903239AE2654BBB
:10117000D3F894301B0903F0F0039FE7FFF7BAFEA2
:10118000002840F088825F4B1A6842F008021A601B
:101190001A6822F0F002216A0A431A605A6822F49F
:1011A0007F42E16942EA01225A609DE7206AFFF727
:1011B000A1FE002898D0012374E2524B1A6842F035
:1011C00008021A601A6822F0F002216A0A431A60C3
:1011D0005A6822F47F42E16942EA01225A6098E7A4
:1011E000484A136823F001031360FFF705FD074623
:1011F000444B1B6813F0020F8BD0FFF7FDFCC01BA4
:101200000228F5D903234DE2032E8BD13D4B1B68F9
:1012100013F4003F03D06368002B00F03E82236884
:1012200013F0020F4FD0042D3CD00C2D38D0E368C2
:10123000002B78D0334A136843F480731360FFF7B0
:10124000DBFC06462F4B1B6813F4806F62D1FFF75F
:10125000D3FC801B0228F5D9032323E2294A136813
:1012600043F4803313606FE703F18043A3F53C330D
:101270001A6842F480221A601A6842F480321A60B6
:1012800062E7FFF7B9FC07461E4B1B6813F4003FEB
:10129000C5D0FFF7B1FCC01B6428F5D9032301E2D8
:1012A000022EC4D1174B1B6813F4806F03D0E36880
:1012B000002B00F0F481134A536823F0FE432169A8
:1012C00043EA01635360236813F0080F56D0636943
:1012D000002B3CD00B4AD2F8943043F00103C2F803
:1012E0009430FFF789FC0646064BD3F8943013F090
:1012F000020F43D1FFF780FC801B0228F4D903239F
:10130000D0E100BF00100240BC3000080000002007
:1013100008000020B04A536823F0FE43216943EAE5
:1013200001635360CFE7AC4A136823F48073136002
:10133000FFF762FC0646A84B1B6813F4806FC2D00F
:10134000FFF75AFC801B0228F5D90323AAE1A24A21
:10135000D2F8943023F00103C2F89430FFF74CFC2C
:1013600006469D4BD3F8943013F0020F06D0FFF7DA
:1013700043FC801B0228F4D9032393E1236813F074
:10138000040F7AD0944B9B6D13F0805F0BD1924B7E
:101390009A6D42F080529A659B6D03F080530193E1
:1013A000019B012600E000268C4B1B6813F4807F14
:1013B00026D0A368012B37D0052B3DD0864BD3F820
:1013C000902022F00102C3F89020D3F8902022F060
:1013D0000402C3F89020A368002B3BD0FFF70CFC5D
:1013E00007467D4BD3F8903013F0020F44D1FFF73E
:1013F00003FCC01B41F288339842F2D9032351E128
:10140000764A136843F480731360FFF7F5FB0746D1
:10141000724B1B6813F4807FCBD1FFF7EDFBC01B31
:101420000228F5D903233DE16B4AD2F8903043F00E
:101430000103C2F89030CEE7674BD3F8902042F01A
:101440000402C3F89020D3F8902042F00102C3F8C0
:101450009020C0E7FFF7D0FB07465F4BD3F89030F2
:1014600013F0020F08D0FFF7C7FBC01B41F288330F
:101470009842F2D9032315E1E6B9236813F0200F4F
:1014800035D0636AE3B1544AD2F8983043F001038F
:10149000C2F89830FFF7B0FB06464F4BD3F89830B0
:1014A00013F0020F23D1FFF7A7FB801B0228F4D90A
:1014B0000323F7E0484A936D23F080539365DCE7FC
:1014C000454AD2F8983023F00103C2F89830FFF76C
:1014D00093FB0646404BD3F8983013F0020F06D02A
:1014E000FFF78AFB801B0228F4D90323DAE0A36A02
:1014F000002B00F0D680022B27D00C2D00F0DB80D3
:10150000354B1A6822F080721A601B6813F0006F66
:1015100004D1314AD36823F00303D3602E4AD36841
:1015200023F0887323F48033D360FFF765FB044610
:10153000294B1B6813F0007F00F0A680FFF75CFBCF
:10154000001B0228F4D90323ACE0234BDB6803F033
:101550000301E26A914209D00C2D00F0A6801E4BD7
:101560001B6813F0806F3BD001239BE003F07002F7
:10157000216B0139B2EB011FEED103F4FE42616B26
:10158000B2EB012FE8D103F07842A16BB2EBC16F4F
:10159000E2D103F4C001E26B5208013AB1EB425FC1
:1015A000DAD103F0C063226C5208013AB3EB426F08
:1015B000D2D1094B1B6813F0007F78D1064B1A6813
:1015C00042F080721A60DA6842F08072DA60FFF7E7
:1015D00013FB044651E000BF0010024000700040C1
:1015E000364A136823F080731360FFF705FB054646
:1015F000324B1B6813F0007F06D0FFF7FDFA401B4B
:101600000228F5D903234DE02C4AD3682C49194010
:10161000E36A206B013843EA0013606B43EA00235E
:10162000E06B4008013843EA4053206C4008013821
:1016300043EA4063A06B43EAC0630B43D360136883
:1016400043F080731360D36843F08073D360FFF777
:10165000D3FA0446194B1B6813F0007F06D1FFF73D
:10166000CBFA001B0228F5D903231BE0002319E065
:10167000FFF7C2FA001B02281BD8104B1B6813F09F
:10168000007FF5D000230DE000230BE00123184676
:101690007047012306E0012304E0012302E0012357
:1016A00000E00023184603B0F0BD0123FAE7002351
:1016B000F8E70323F6E70123F4E700BF0010024038
:1016C0008C809D01002800F09B8070B504464E4B35
:1016D0001B6803F007038B420CD24B4A136823F0BC
:1016E00007030B431360136803F007038B4201D019
:1016F000012070BD0D46236813F0010F39D06368D7
:10170000032B09D0022B26D063BB404A126812F08B
:10171000020F06D10120ECE73C4A126812F0007F6C
:1017200070D03A498A6822F0030213438B60FFF7B6
:1017300063FA0646354B9B6803F00C036268B3EB13
:10174000820F16D0FFF758FA801B41F28833984277
:10175000F0D90320CDE72D4A126812F4003FE0D102
:101760000120C6E7294A126812F4806FD9D10120FE
:10177000BFE7236813F0020F06D0244A936823F0D2
:10178000F003A1680B4393601F4B1B6803F0070332
:10179000AB420CD91C4A136823F007032B43136098
:1017A000136803F00703AB4201D00120A1E72368CF
:1017B00013F0040F06D0154A936823F4E063E16840
:1017C0000B439360236813F0080F07D00F4A936808
:1017D00023F46053216943EAC1039360FFF7D2FB0E
:1017E0000A4B9B68C3F30313094AD35C03F01F033E
:1017F000D840084B1860084B1868FFF7BBF978E72A
:1018000001207047012074E70020024000100240D0
:10181000BC3000080000002008000020014B1868C0
:10182000704700BF0000002008B5FFF7F7FF054B29
:101830009B68C3F30223044AD35C03F01F03D84020
:1018400008BD00BF00100240CC30000808B5FFF70B
:10185000E5FF054B9B68C3F3C223044AD35C03F046
:101860001F03D84008BD00BF00100240CC30000864
:10187000F8B5594BDB6813F0030F18D0564BDB68F3
:1018800003F003030268934202D001252846F8BD05
:10189000002A00F09F80504BDB68C3F30213013332
:1018A0004268934201D00125F0E700251AE0036861
:1018B000022B58D0032B5DD0012B01D001250FE066
:1018C000454A126812F0020F60D0434DEA6822F0D8
:1018D00073024468013C43EA04131343EB600025A0
:1018E000002DD3D10F4604463B4A136823F0806392
:1018F0001360FFF781F90646374B1B6813F0006F42
:1019000005D0FFF779F9801B0228F5D90325002DB2
:10191000BCD1002F3CD130490B6923F0784323F42C
:10192000FE43A068E268D20642EA002213430B613C
:10193000294A136843F080631360FFF75DF9064698
:10194000254B1B6813F0006F05D1FFF755F9801B7D
:101950000228F5D90325002D98D11F4A1369A169E2
:101960000B43136192E71C4A126812F4806FACD1EA
:101970000125B5E7184A126812F4003FA5D1164AAE
:10198000126812F4802FA0D10125A9E70125A7E74D
:10199000012F0FD01048026922F0C06222F4FE42EB
:1019A000A16863695B08013B5B0643EA01231343BB
:1019B0000361BDE70848026922F4C00222F4FE4236
:1019C000A16823695B08013B5B0543EA01231343DC
:1019D0000361ADE7012559E7001002402DE9F04110
:1019E00082B00446036813F4006F26D0C36BB3F5CE
:1019F000000F06D0B3F5400F1DD09BB1012637462E
:101A00001DE0AE4AD36843F48033D3600027AB4A6D
:101A1000D2F8883023F44003E16B0B43C2F88830DE
:101A200000260CE000210430FFF722FF07460028C3
:101A3000EDD0064603E00027E9E700263746236895
:101A400013F4003F6BD09D4B9B6D13F0805F4CD126
:101A50009A4B9A6D42F080529A659B6D03F08053C9
:101A60000193019B4FF00108954A136843F480737A
:101A70001360FFF7C1F80546914B1B6813F4807F94
:101A800005D1FFF7B9F8401B0228F5D90327002F2D
:101A900040D18A4BD3F8903013F4407315D0226DA7
:101AA0009A4212D0854AD2F8903023F44073D2F88B
:101AB000901041F48031C2F89010D2F8901021F4C7
:101AC0008031C2F89010C2F8903013F0010F0FD19E
:101AD000002F40F0C980794AD2F8903023F4407347
:101AE000216D0B43C2F8903015E04FF00008BBE7C2
:101AF000FFF782F80546714BD3F8903013F0020FD0
:101B0000E6D1FFF779F8401B41F288339842F2D9C9
:101B10000327DDE73E46B8F1000F40F0A7802368B9
:101B200013F0010F08D0654AD2F8883023F0030380
:101B3000216A0B43C2F88830236813F0020F08D0E3
:101B40005E4AD2F8883023F00C03616A0B43C2F876
:101B50008830236813F0200F08D0584AD2F8883014
:101B600023F44063A16A0B43C2F88830236813F45E
:101B7000007F08D0514AD2F8883023F44023616BAB
:101B80000B43C2F88830236813F4806F08D04B4AA7
:101B9000D2F8883023F44013A16B0B43C2F888308D
:101BA000236813F0400F08D0444AD2F8883023F459
:101BB0004053E16A0B43C2F88830236813F4807FF6
:101BC00008D03E4AD2F8883023F44033216B0B43CF
:101BD000C2F88830236813F4005F0FD0374AD2F878
:101BE000883023F04063216C0B43C2F88830236CAB
:101BF000B3F1006F40D0B3F1806F42D0236813F48B
:101C0000802F0FD02D4AD2F8883023F04063616CCA
:101C10000B43C2F88830636CB3F1006F39D0B3F175
:101C2000806F3BD0236813F4804F0CD0234AD2F846
:101C3000883023F04053A16C0B43C2F88830A36C6A
:101C4000B3F1805F32D0236813F4004F08D01B4AF1
:101C5000D2F8883023F08043E16C0B43C2F888301F
:101C6000304602B0BDE8F0813E4654E7134A936D1A
:101C700023F08053936552E7D36843F48013D36015
:101C8000BCE70121201DFFF7F3FD0028B6D0064672
:101C9000B4E7D36843F48013D360C3E70121201D68
:101CA000FFF7E6FD0028BDD00646BBE70221201D58
:101CB000FFF7DEFD0028C6D00646C4E7001002404C
:101CC000007000402DE9D848044601688368026925
:101CD000134342691343C269134308688C4A0240A4
:101CE00013430B602268536823F44053E1680B43AD
:101CF0005360A1692268874B9A4201D0236A194335
:101D0000936823F430630B4393602368824A9342C1
:101D10001CD0824A93422DD07E4A934243D0102257
:101D20007C498B425ED0E369B3F5004F00F08C80B4
:101D3000082A00F2E780DFE812F0B700CE00B50015
:101D4000E500D100E500E500E500D40002F55842C9
:101D5000D2F8882002F00302032A09D8DFE802F053
:101D600002043C060122DBE70422D9E70822D7E778
:101D70001022D5E702F5E632D2F8882002F00C02F4
:101D80000C2A0ED8DFE802F0070D0D0D090D0D0D20
:101D90002A0D0D0D0B000022C2E70422C0E7082225
:101DA000BEE71022BCE702F5C832D2F8882002F460
:101DB0004062B2F5806F0BD007D9B2F5006F0FD03B
:101DC000B2F5406F06D10822AAE71AB90022A7E7A8
:101DD0000422A5E71022A3E70222A1E702229FE73F
:101DE00002229DE7082A7FD8DFE802F0087E107EF5
:101DF0000D7E7E7E05004FF4004008E0FFF714FDE5
:101E000028B9002062E0FFF7BDF8F9E744486268AE
:101E100002EB4203834269D8B0EB023F68D800234B
:101E2000070E0602500816EB000B47F1000C58464F
:101E30006146FEF7CDF9A0F540723A4B9A4259D867
:101E40002368D860002041E0082A55D8DFE802F076
:101E500007210554245454542700314803E0FFF768
:101E6000E3FC00284AD06268530803EB4003B3FB4D
:101E7000F2F39BB2A3F110014FF6EF7291423FD8FB
:101E800023F00F02C3F3420313432268D360002000
:101E90001CE0FFF7DBFCE4E7FFF774F8E1E74FF441
:101EA0000040E0E71E4802E0FFF7BEFC60B3636855
:101EB00000EB5300B0FBF3F080B2A0F110024FF63C
:101EC000EF739A4222D82368D8600020002323664B
:101ED0006366BDE8D888FFF7B9FCE7E7FFF752F87B
:101EE000E4E74FF40040E2E70120EFE70120EDE7EF
:101EF0000120EBE70120E9E70120E7E70020E5E723
:101F00000120E3E70120E1E70020DFE70120DDE732
:101F1000F369FFEF008000400038014000440040BA
:101F20000024F400FFFC0F00436A13F0010F06D0F9
:101F30000268536823F40033816A0B435360436A99
:101F400013F0020F06D00268536823F48033C16A8D
:101F50000B435360436A13F0040F06D002685368C2
:101F600023F48023016B0B435360436A13F0080F83
:101F700006D00268536823F40043416B0B4353605F
:101F8000436A13F0100F06D00268936823F480535D
:101F9000816B0B439360436A13F0200F06D00268F5
:101FA000936823F40053C16B0B439360436A13F0AF
:101FB000400F0AD00268536823F48013016C0B436E
:101FC0005360036CB3F5801F0BD0436A13F0800F8E
:101FD00006D00268536823F40023816C0B435360DE
:101FE00070470268536823F4C003416C0B4353608D
:101FF000EBE72DE9F04104460F4616469846069D4C
:102000002368DB6937EA03030CBF01230023B342D3
:102010003AD1B5F1FF3FF3D0FEF7EEFDA0EB08009B
:10202000A8421FD8F5B123681A6812F0040FE7D050
:10203000DA6912F4006FE3D04FF400621A6222688A
:10204000136823F4D07313602268936823F00103AC
:10205000936020236367A367E367002384F87030ED
:10206000032012E02268136823F4D07313602268FF
:10207000936823F00103936020236367A367002321
:1020800084F87030032000E00020BDE8F08130B516
:1020900083B004460023C367FEF7AEFD0546236800
:1020A0001B6813F0080F0CD123681B6813F0040F92
:1020B00015D120236367A367002084F8700003B064
:1020C00030BD6FF07E430093034600224FF40011B1
:1020D0002046FFF78EFF0028E6D00320EFE76FF0E1
:1020E0007E4300932B4600224FF480012046FFF7E9
:1020F00080FF0028DDD00320E1E768B310B5044677
:10210000436F03B3242363672268136823F001033A
:1021100013602046FFF7D6FD012813D0636ABBB9D0
:102120002268536823F4904353602268936823F035
:102130002A0393602268136843F00103136020466A
:10214000FFF7A5FF10BD80F87030FEF7ABFCD9E7B4
:102150002046FFF7E9FEE3E701207047842801D01D
:10216000033070470020704708B500F067FA002080
:1021700008BD2DE9F04387B004460F464569A5B177
:10218000866996B1D0F80480D0F80090B0F90800C4
:10219000FFF7E4FF22690296019500903B4649460D
:1021A000404600F0DDF9059013E065682668D4F834
:1021B0001080B4F90800FFF7D1FF05AB0193009040
:1021C0003B461FFA88F23146284600F003FA012800
:1021D00003D1059807B0BDE8F0830020FAE708B501
:1021E000034600B90123184600F0BAFB002008BDE1
:1021F00000F1080343604FF0FF328260C360036167
:1022000000230360704700230361704743684B60FD
:102210009A688A609A68516099600861036801331E
:102220000360704730B40D68B5F1FF3F02D000F194
:10223000080202E0026904E01A4653681C68AC42D6
:10224000FAD953684B6099608A60516008610368ED
:102250000133036030BC7047036942688168916054
:102260008268416851605A68824206D00022026149
:102270001A68013A1A601868704782685A60F5E770
:10228000074B9B6A1B6833B1054B9A6AD268D268C8
:102290005268DA627047024B4FF0FF32DA627047E1
:1022A000840200202DE9F04780469946089D099F49
:1022B0000A9C266B02F18042013A06EB820626F068
:1022C000070689B30A4600230F2B07D8D05CE11814
:1022D00081F83400D15C09B10133F5E7002384F8BB
:1022E0004330062D00D90625E56265644FF0000AEB
:1022F000C4F848A0201DFFF786FF04F11800FFF77F
:1023000082FF2461C5F10705A5616462C4F84CA091
:1023100084F850A04A464146304600F0DDFB20607C
:1023200007B13C60BDE8F087002384F83430D8E77B
:1023300070B5002407E004EB8402930010481844B1
:10234000FFF756FF0134062CF5D90E4C04F1BC06FC
:102350003046FFF74DFF04F1D0052846FFF748FF50
:1023600004F11400FFF744FF04F1E400FFF740FF1D
:102370002046FFF73DFFA662C4F8F85070BD00BFCD
:10238000B40200208402002038B5054600F0D2FBDC
:10239000264BD3F8FC200132C3F8FC20D3F80031DF
:1023A00073B1224BD3F804318BB9204BD3F80031F1
:1023B000DA6AEB6A9A420AD81C4BC3F8005106E06D
:1023C0001A4BC3F80051D3F8FC30012B2AD0174C1C
:1023D000D4F808310133C4F80831EB6A01229A407D
:1023E000D4F80C110A43C4F80C2104F1300003EBBB
:1023F00083039A00291D1044FFF708FF00F0BCFB7F
:10240000D4F804316BB1D4F80031DA6AEB6A9A423D
:1024100007D2074B4FF080521A60BFF34F8FBFF3C4
:102420006F8F38BDFFF784FFD1E700BF8402002023
:1024300004ED00E010B5044690F8513033B9006B5C
:1024400000F07CFD204600F079FD10BD012B0AD084
:10245000022BFAD04FF0500383F31188BFF36F8F34
:10246000BFF34F8FFEE700F069FDEEE738B517E0E8
:1024700000F060FB0D4CD4F8F030DD68281DFFF74C
:10248000EBFED4F8FC30013BC4F8FC30D4F810313A
:10249000013BC4F8103100F06FFB2846FFF7CAFF7C
:1024A000024BD3F81031002BE2D138BD840200205A
:1024B00008B5FFF7DBFF064B1B6B012BF9D9054B6A
:1024C0004FF080521A60BFF34F8FBFF36F8FF0E76A
:1024D0008402002004ED00E070B504460E461F4B58
:1024E000D3F81451D3F800010430FFF7B5FE60B9FA
:1024F0001A4BD3F80021D16A012202FA01F1D3F874
:102500000C2122EA0102C3F80C21B4F1FF3F12D0E2
:102510002C44124BD3F800315C60A54214D80F4D07
:10252000A86AD5F800110431FFF77CFEEB6AA342DC
:1025300012D9EC6210E0002EEAD00848D0F8001161
:102540000431FFF763FE07E0044BD3F8F800D3F83B
:1025500000110431FFF766FE70BD00BF8402002049
:1025600070B586B00B9D0C9C45B94FF0500383F3BA
:102570001188BFF36F8FBFF34F8FFEE744B94FF061
:10258000500383F31188BFF36F8FBFF34F8FFEE7C4
:1025900054260496049E542E08D04FF0500383F323
:1025A0001188BFF36F8FBFF34F8FFEE7049E256343
:1025B000022584F8515000250395029405AD01953C
:1025C0000A9D0095FFF76EFE2046FFF7DDFE059899
:1025D00006B070BD2DE9F04385B007468846154624
:1025E0009946900000F024FC08B30646542000F001
:1025F0001FFC0446B8B10663E4B1002384F85130EF
:10260000039302940D9B01930C9B00934B462A4627
:1026100041463846FFF746FE2046FFF7B5FE01204B
:1026200005B0BDE8F083304600F088FCE4E74FF0E9
:10263000FF30F5E74FF0FF30F2E7000010B588B04B
:1026400000240594069407AA06A905A8FEF7FCF83D
:10265000059B0293069B019300942346079A0D491C
:102660000D48FFF77DFF08B908B010BD4FF05003CB
:1026700083F31188BFF36F8FBFF34F8F074B4FF07A
:10268000FF32DA620122C3F80421C3F8144100F0DA
:10269000F3FAE9E7F0300008B124000884020020D2
:1026A000034AD2F818310133C2F81831704700BF1D
:1026B00084020020014BD3F81401704784020020EB
:1026C0002DE9F041404BD3F81831002B6CD13E4B33
:1026D000D3F814510135C3F81451CDB99B6A1B6866
:1026E00043B14FF0500383F31188BFF36F8FBFF3F3
:1026F0004F8FFEE7344B9A6AD3F8F8109962C3F80B
:10270000F820D3F81C210132C3F81C21FFF7B8FDD3
:102710002D4BDB6AAB423DD900242B4AD2F8003165
:10272000DB6A03EB830399000A44136B012B42D944
:10273000012440E00124244B9B6A1B6863B3224BB5
:102740009B6ADB68DE6873689D422AD306F1040841
:102750004046FFF781FDB36A1BB106F11800FFF791
:102760007BFDF36A01229A40174FD7F80C110A43F8
:10277000C7F80C2107F1300003EB83039A004146B0
:102780001044FFF743FDF26AD7F80031DB6A9A4242
:10279000D0D2D0E70024CEE70B4B4FF0FF32DA6205
:1027A000BBE7094AD362B8E7074AD2F820310133C0
:1027B000C2F820310024044BD3F8243103B10124A2
:1027C0002046BDE8F08100BF84020020394BD3F8D9
:1027D000183143B94FF0500383F31188BFF36F8F63
:1027E000BFF34F8FFEE770B500F0A4F9314BD3F87B
:1027F0001821013AC3F81821D3F81831002B54D10D
:102800002C4BD3F8FC3023B9002400F0B5F9204656
:1028100070BD0024274B5B692BB3264D2B6ADC6807
:1028200004F11800FFF718FD261D3046FFF714FDD0
:10283000E36A01229A40D5F80C110A43C5F80C212D
:1028400005F1300003EB83039A0031461044FFF793
:10285000DDFCE26AD5F80031DB6A9A42DAD3012264
:10286000C5F82421D6E70CB1FFF70AFD114BD3F8C8
:10287000204164B1FFF724FF18B10E4B0122C3F8C9
:102880002421013CF6D10B4B0022C3F82021094B37
:10289000D3F824315BB1084B4FF080521A60BFF37C
:1028A0004F8FBFF36F8F0124AFE70024ADE7002403
:1028B000ABE700BF8402002004ED00E038B550B162
:1028C000054689B94FF0500383F31188BFF36F8F2A
:1028D000BFF34F8FFEE74FF0500383F31188BFF330
:1028E0006F8FBFF34F8FFEE71B4BD3F8183143B107
:1028F0004FF0500383F31188BFF36F8FBFF34F8FF7
:10290000FEE70C46FFF7CCFE134BD3F814012A6800
:102910001444824218D9A2420CD82C60FFF756FF0B
:1029200038B90E4B4FF080521A60BFF34F8FBFF390
:102930006F8F38BDA04201D32C60EFE72C600021DF
:10294000201AFFF7C9FDE9E7A24201D8A04201D24F
:102950002C60F4E72C60E1E78402002004ED00E045
:1029600010B5B0B104460F4BD3F8183143B14FF056
:10297000500383F31188BFF36F8FBFF34F8FFEE7D0
:10298000FFF78EFE00212046FFF7A6FDFFF71EFF92
:1029900038B9054B4FF080521A60BFF34F8FBFF329
:1029A0006F8F10BD8402002004ED00E0224BD3F8AD
:1029B000183123B1204B0122C3F8242170471E4A4D
:1029C0000023C2F82431D2F80C31B3FA83F3DBB21E
:1029D000C3F11F0303EB830081000A44126B42B969
:1029E0004FF0500383F31188BFF36F8FBFF34F8F06
:1029F000FEE710B4104A9900CC18A0001044446BB4
:102A000064684463303219448800083002449442B8
:102A10000BD0094903EB83039A000A44536BDB682C
:102A2000C1F800315DF8044B704761680248142218
:102A300002FB03025163ECE784020020064BD3F84B
:102A400004313BB1044BD3F818310BB1002070476F
:102A500002207047012070478402002082B00023CA
:102A600001930D4B1B68B3F1FF3F08D04FF05003AB
:102A700083F31188BFF36F8FBFF34F8FFEE74FF0E3
:102A8000500383F31188BFF36F8FBFF34F8F019B08
:102A9000002BFCD002B070470C00002008480068F2
:102AA000006880F308884FF0000080F3148862B655
:102AB00061B6BFF34F8FBFF36F8F00DF00BF000021
:102AC00008ED00E0DFF80C00016841F470010160DE
:102AD0007047000088ED00E04FF0807340F8043C40
:102AE00021F0010140F8081C054B40F80C3C40F86F
:102AF000202C6FF0020340F8243C4438704700BF9C
:102B00005D2A000800000000000000000000000036
:102B1000074B19680868B0E8F04F80F30988BFF3E5
:102B20006F8F4FF0000080F311887047AFF3008083
:102B3000840300204FF0500383F31188BFF36F8F9D
:102B4000BFF34F8F0A4A136801331360012B00D083
:102B50007047084B1B6813F0FF0FF9D04FF050037C
:102B600083F31188BFF36F8FBFF34F8FFEE700BF72
:102B70000C00002004ED00E0094B1B6843B94FF046
:102B8000500383F31188BFF36F8FBFF34F8FFEE7BE
:102B9000013B034A13600BB983F31188704700BFF0
:102BA0000C000020000000000000000000000000F9
:102BB000EFF30980BFF36F8F154B1A681EF0100FEB
:102BC00008BF20ED108A20E9F04F10602DE90900C0
:102BD0004FF0500080F31188BFF34F8FBFF36F8F1A
:102BE000FFF7E4FE4FF0000080F3118809BC19687C
:102BF0000868B0E8F04F1EF0100F08BFB0EC108A64
:102C000080F30988BFF36F8F704700BFAFF3008078
:102C10008403002008B54FF0500383F31188BFF3FD
:102C20006F8FBFF34F8FFFF74BFD18B1034B4FF082
:102C300080521A60002383F3118808BD04ED00E080
:102C4000084A0023136008490B60084B1B680849B9
:102C5000A1FB03139B09013B06490B60072313608B
:102C6000704700BF10E000E018E000E00000002026
:102C7000D34D621014E000E0394B1A68394B9A4288
:102C80000DD0374B1A68384B9A4211D14FF0500390
:102C900083F31188BFF36F8FBFF34F8FFEE74FF0C1
:102CA000500383F31188BFF36F8FBFF34F8FFEE79D
:102CB00010B582B02D4B1A78D2B20192FF221A7051
:102CC0001B78DBB28DF803309DF8033003F050031E
:102CD000274A13700723536009E0254A5368013BD4
:102CE00053609DF803305B00DBB28DF803309DF834
:102CF000033013F0800FF0D11D4B5B68032B08D01D
:102D00004FF0500383F31188BFF36F8FBFF34F8FE2
:102D1000FEE71B0203F4E063154A5360019BDBB23C
:102D2000124A1370134B1A6842F470021A601A6840
:102D300042F070421A60FFF783FF00240E4B1C60C4
:102D4000FFF7C0FE0D4A136843F040431360FFF7DE
:102D5000A5FEFFF72BFEFFF781FE204602B010BD57
:102D600000ED00E071C20F4170C20F4100E400E0CD
:102D7000AC03002020ED00E00C00002034EF00E068
:102D8000144A12F0070F21D0D11D21F00701C1F51F
:102D90003B63083313440A460E49C1F8B82B0020A0
:102DA000C1F8BC0B1344083B23F00703C1F8C03B38
:102DB00058601860981A50601360C1F8C40BC1F8CD
:102DC000C80B4FF00043C1F8CC3B704740F6B83316
:102DD000E2E700BFB403002010B4134B1A6882422C
:102DE0001CD359685C18844203D14068014459607F
:102DF000184641684418A24214D10C4CD4F8C04B78
:102E0000A2420DD05268114441601A6812680260F3
:102E1000984200D018605DF8044B70471346DDE718
:102E20000460F5E70260F3E76C0F0020B4030020B4
:102E300070B50446FFF734FC3F4BD3F8C03BC3B139
:102E40003D4BD3F8CC3B1C426CD1ACB1083414F0F0
:102E5000070F11D024F00704083404F007035BB116
:102E60004FF0500383F31188BFF36F8FBFF34F8F81
:102E7000FEE7FFF785FFE3E7002C55D02E4BD3F894
:102E8000C83BA34252D32C4BD3F8B85B03F6B833FC
:102E900001E02B4615466A68A24202D22A68002A3F
:102EA000F7D1254AD2F8C02BAA4241D01E68083675
:102EB0002A681A606B681B1B102B10D9281910F098
:102EC000070F08D04FF0500383F31188BFF36F8FC3
:102ED000BFF34F8FFEE743606C60FFF77DFF6968CB
:102EE000154AD2F8C83B5B1AC2F8C83BD2F8C42BCB
:102EF000934202D2104AC2F8C43B0F4BD3F8CC3BEA
:102F00000B436B6000232B60FFF760FC16F0070F8C
:102F100010D04FF0500383F31188BFF36F8FBFF3CE
:102F20004F8FFEE70026EFE70026EDE70026EBE7F0
:102F30000026E9E7304670BDB403002098B338B5E9
:102F40000446A0F1080550F8042C1749D1F8CC1B11
:102F50000A4208D14FF0500383F31188BFF36F8FFB
:102F6000BFF34F8FFEE750F8080C40B14FF050030D
:102F700083F31188BFF36F8FBFF34F8FFEE722EA11
:102F8000010244F8042CFFF78BFB54F8041C064A9A
:102F9000D2F8C83B0B44C2F8C83B2846FFF71CFFD9
:102FA000FFF714FC38BD7047B4030020DFF834D0BD
:102FB000FDF7BCFD002103E00B4B5B58435004318F
:102FC0000A480B4B42189A42F6D30A4A02E0002301
:102FD00042F8043B084B9A42F9D300F011F8FDF790
:102FE000FDFCFEE700000120103100080000002079
:102FF000100000201000002080120020FEE70000DA
:1030000070B50D4E0D4CA41BA4100025A54209D18E
:103010000B4E0C4C00F020F8A41BA4100025A54278
:1030200005D170BD56F8253098470135EEE756F8C2
:10303000253098470135F2E70031000800310008DB
:10304000003100080431000802440346934200D1D5
:10305000704703F8011BF9E7F8B500BFF8BC08BCDE
:103060009E467047F8B500BFF8BC08BC9E46704746
:10307000E43000085D0900080000000000000000C6
:10308000800000000000000000000000A086010099
:10309000400D0300801A060000350C0040420F006E
:1030A00080841E0000093D0000127A000024F40014
:1030B00000366E010048E801006CDC0200000000F0
:1030C00000000000010203040607080900000000D8
:1030D000010203044661756C7473000042757474D8
:1030E0006F6E000064656661756C745461736B008B
:0830F00049444C4500000000BA
:0830F80008D1FF7F0100000078
:08310000B50100080000000009
:08310800910100080000000025
:1031100000093D000100000010000000AAAAAAAAB0
:0400000508002FAD13
:00000001FF
