:020000040800F2
:10000000000001204D440008E9140008EB1400082A
:10001000ED140008EF140008F114000800000000BF
:10002000000000000000000000000000B13F0008D8
:10003000F31400080000000051400008F514000807
:100040009D4400089D4400089D4400089D4400080C
:100050009D4400089D4400089D4400089D440008FC
:100060009D4400089D4400089D4400089D440008EC
:100070009D4400089D4400089D4400089D440008DC
:100080009D4400089D4400089D4400089D440008CC
:100090009D4400089D4400089D4400089D440008BC
:1000A0009D4400089D4400089D4400089D440008AC
:1000B0009D44000800000000000000009D4400086E
:1000C0009D44000800000000000000009D4400085E
:1000D000000000009D4400089D440008000000004E
:1000E0009D4400089D44000800000000000000003E
:1000F0000000000000000000000000000000000000
:100100000000000000000000000000009D44000806
:1001100000000000000000009D4400089D4400080D
:100120009D4400089D4400089D4400089D4400082B
:100130009D440008000000000000000000000000D6
:100140009D4400089D4400089D4400089D4400080B
:100150009D4400089D4400089D4400089D440008FB
:100160009D4400089D4400089D44000800000000D4
:100170009D4400089D4400080000000000000000AD
:100180009D4400089D4400089D44000800000000B4
:1001900010B5054C237833B9044B13B10448AFF3C1
:1001A00000800123237010BD180000200000000013
:1001B0004445000808B5034B1BB103490348AFF39E
:1001C000008008BD000000001C000020444500081D
:1001D00053B94AB9002908BF00281CBF4FF0FF31AE
:1001E0004FF0FF3000F072B9ADF1080C6DE904CEAC
:1001F00000F006F8DDF804E0DDE9022304B0704702
:100200002DE9F047089E04468846002B4BD18A42D0
:10021000154667D9B2FA82F24AB1C2F1200701FA53
:1002200002F320FA07F7954047EA030894404FEAA3
:10023000154E230CB8FBFEF71FFA85FC0EFB178842
:1002400043EA084307FB0CF1994209D9EB1807F17F
:10025000FF3080F01B81994240F21881023F2B440D
:100260005B1AA4B2B3FBFEF00EFB103344EA034466
:1002700000FB0CFCA44509D92C1900F1FF3380F0D8
:100280000781A44540F2048102382C4440EA07402B
:10029000A4EB0C0400271EB1D4400023C6E90043A0
:1002A0003946BDE8F0878B4209D9002E00F0EB807B
:1002B0000027C6E9000138463946BDE8F087B3FAA1
:1002C00083F7002F47D18B4202D3824200F2FA809B
:1002D000841A61EB030301209846002EE0D0C6E9A2
:1002E0000048DDE702B9FFDEB2FA82F2002A40F0F0
:1002F0008F80491B4FEA154E1FFA85F80127B1FB85
:10030000FEFC230C0EFB1C1143EA014308FB0CF11D
:10031000994207D9EB180CF1FF3002D2994200F252
:10032000CD808446591AA3B2B1FBFEF00EFB101427
:1003300043EA044408FB00F8A04507D92C1900F152
:10034000FF3302D2A04500F2B6801846A4EB0804A1
:1003500040EA0C409FE7C7F1200CBB4022FA0CFE9C
:100360004EEA030E01FA07F420FA0CF521FA0CF319
:100370004FEA1E482543B3FBF8F92C0C08FB193350
:100380001FFA8EFA44EA034309FB0AF49C4202FA7C
:1003900007F200FA07F10BD91EEB030309F1FF3056
:1003A00080F087809C4240F28480A9F10209734466
:1003B0001B1BADB2B3FBF8F008FB103345EA034456
:1003C00000FB0AFAA24508D91EEB040400F1FF3332
:1003D0006BD2A24569D90238744440EA0940A0FBB7
:1003E0000289A4EB0A044C45C2464B4654D351D073
:1003F000002E69D0B1EB0A0564EB030404FA0CFC8F
:10040000FD40FC404CEA0505C6E90054002747E7DB
:10041000C2F1200320FA03F7954001FA02F021FA15
:1004200003F34FEA154E3843010CB3FBFEF71FFAF6
:1004300085F80EFB173341EA034107FB08F38B42B3
:1004400004FA02F407D9691807F1FF3C2FD28B4256
:100450002DD9023F2944CB1A81B2B3FBFEF00EFB2B
:10046000103341EA034100FB08F38B4207D96918B6
:1004700000F1FF3C17D28B4215D902382944C91A22
:1004800040EA07473BE73746304609E70746E7E6D5
:100490001846FBE64145ABD2B8EB020A69EB0E0207
:1004A00001381346A4E76046E9E7184695E7674632
:1004B000D1E781467CE702382C4447E7ACF1020CD7
:1004C0002B442FE7384608E73746E9E6704700BF78
:1004D00038B5054600240C4B1B78A34211DD04EB14
:1004E00044029300032209491944284604F017F8EE
:1004F00008B10134EFE704EB4404A30003481844B7
:1005000000E0002038BD00BF87100020340000202C
:100510002DE9F04184B000262FE02346BA1B013AB2
:100520009A4229DD194A03EB430081001144CD882A
:100530005C1C04EB440081000A44D2889542ECD94B
:10054000DFF848C00D4665440DF1040E95E807003C
:100550008EE807004FEA430808EB03018A00624473
:1005600007CA85E8070043449A000CEB02039EE8A3
:10057000070083E80700D0E70136054B1F78B74234
:1005800001DD0023CAE704B0BDE8F081340000209B
:100590008710002010B40E4B1C88844214D3002313
:1005A0000C49097899420CDD03EB430291000A4A99
:1005B0000A44D288824201D80133F1E7121A90B27C
:1005C00003E0221A90B200E000205DF8044B70476F
:1005D0008410002087100020340000200378DB09FD
:1005E0000B70037803F07F030370704790F90030BD
:1005F0000A7843EAC21303707047042800D8FEE764
:100600007047000010B582B0114C030A237060706F
:100610000A2000F0E5FF0F4B19780F4B18684FF0D8
:10062000FF33009302232246490001F0E7FA0B4B07
:10063000187040B9084B1B6893F84130DBB2202B8F
:10064000F8D102B010BD0120FFF7D7FFF2E700BFDD
:100650008C100020861000208010002088100020C0
:1006600000B585B0FFF7CEFF0E4B197849000E4B51
:1006700018684FF0FF33009301230DF10F02194367
:1006800001F07AFB094B187038B9052000F0A8FF7B
:100690009DF80F0005B05DF804FB0120FFF7ADFFEA
:1006A000F3E700BF86100020801000208810002093
:1006B00030B583B00C461546FFF7A4FF052000F0C7
:1006C0008FFF0B4B197849000A4B18684FF0FF3326
:1006D00000932B46224641F0010101F04DFB064BF1
:1006E000187008B903B030BD0120FFF786FFF9E7A5
:1006F00086100020801000208810002084B010B5E3
:100700008AB00CAC84E80F002122002101A803F07C
:10071000F6FE00240FE0202201A92046FFF7C8FFC3
:100720006423202201A90CA802F02DFE0A2000F06B
:1007300057FF2034A4B2044B1B88A342EBD80AB065
:10074000BDE8104004B070478410002010B50024AC
:100750000BE004EB44029300E0000130082205495D
:10076000194480B2FFF7A4FF0134034B1B78A34266
:10077000EFDC10BD340000208710002008B5084BC6
:100780001860084B1980084B1A700020FFF768FFAB
:10079000064B1870FFF7DAFFFFF7BAFE08BD00BF7F
:1007A0008010002084100020861000208710002078
:1007B00038B5054600240F4B1B78A34217DD04EB28
:1007C0004402930003220C491944284603F0A7FE73
:1007D00008B10134EFE708496200101983000B44A7
:1007E0009A889968D888FFF763FF002000E001200D
:1007F00038BD00BF871000203400002010B582B043
:10080000114C030A23706070A170052000F0E8FE0F
:100810000E4B19780E4B18684FF0FF3300930323EB
:100820002246490001F0EAF90A4B187040B9084B1A
:100830001B6893F84130DBB2202BF8D102B010BD19
:100840000120FFF7DAFEF2E78C100020861000206E
:10085000801000208810002070B584B005460C463A
:100860001646052000F0BCFE0E4B19780E4B18689A
:100870004FF0FF3302930196009502232246490070
:1008800001F038FB094B187040B9074B1B6893F80F
:100890004130DBB2202BF8D104B070BD0120FFF74E
:1008A000ACFEF2E7861000208010002088100020A7
:1008B0002DE9F04180460F464B0901335B019BB2A5
:1008C0008E18B6B2013EB6B20D4615E0DCB2EBB200
:1008D000E41AE4B2C01BA4B2224629464044FFF702
:1008E000BBFF052000F07CFE2544ADB26B0901334F
:1008F0005B019BB2AE4208D92846721B591B8A4243
:10090000E4DAD4B20134E4B2E4E7BDE8F0810000F7
:1009100070B584B00646194B18780138C000013014
:1009200008220DEB020180B2FFF7C2FE002500E0B5
:100930000135124B1978A94217DDEC000134A4B23D
:10094000032201A92046FFF7B3FE0322314601A886
:1009500003F0E5FD0028EBD1082221460DEB020053
:10096000FFF7A6FF054B1D78E2E70139C9B2197000
:100970000020FFF743FF04B070BD00BF87100020C8
:1009800038B5002413E05D1C174903EB43039A00BC
:100990008B1805EB450082000A4407CA83E807006C
:1009A0002B46124A12789A42EDDC013C01340F4B7F
:1009B0001B78A34216DD04EB44039A000A4B134450
:1009C0009B68002BF2D1084B134493F90330002BA2
:1009D000ECDB04EB4402930003481844FFF798FF54
:1009E0002346DEE738BD00BF34000020871000201A
:1009F00038B5054600240F4B1B78A34217DD04EBE6
:100A00004402930003220C491944284603F087FD51
:100A100008B10134EFE708496200101983000B4464
:100A20009A88D9889868FFF743FF002000E00120EA
:100A300038BD00BF871000203400002070B582B0A0
:100A4000064600250F4B1B78AB4216DDEC00A4B226
:100A5000601C032201A980B2FFF72AFE032231465F
:100A600001A803F05CFD08B10135EBE7211D89B257
:100A70000522F01CFFF71CFF02E00420FFF7BDFD7C
:100A800002B070BD87100020F8B5274B1E78002EED
:100A900046D0264BDB88A13B0746834242DA00233F
:100AA0003146721E9A421ADD5D1C204A05EB450450
:100AB000A1001144B1F806C0590001EB030E4FEA42
:100AC0008E04A6461444E488724491886218ACEB04
:100AD00002022B469742E3DC601880B221E0134DFE
:100AE0007400A619B3002B44DE88114B1B889B1B96
:100AF00021448C002544A9880B4498420BDC0B4907
:100B000053009C18A00004460844C08821448B88E8
:100B1000184480B205E00320FFF76FFD002000E0DD
:100B2000A120F8BDA120FCE78710002034000020A0
:100B30008410002038B505468088FFF7A5FFE880BF
:100B40000C4C21780131C9B221700020FFF756FE0C
:100B50002478142C0AD8611EC9000131082289B2F8
:100B60002846FFF7A5FEFFF7D3FC38BD0220FFF7AC
:100B700044FDF0E7871000202DE9F04784B00746D8
:100B80000D4616468DF807301046FFF7A1FC0446C7
:100B90009DF90730002B29DB24B10DF10F01E01C7A
:100BA000FFF71CFD9DF8303013B101238DF8303074
:100BB00004B3A688AE423FD0E088FFF7EBFC864244
:100BC00047D80CA90DF10700FFF710FD9DF807307D
:100BD000E370A580A7602046FFF730FFA288E18878
:100BE000A068FFF765FE04B0BDE8F0877F238DF8AD
:100BF0000730D1E7214B93F800A0DFF884904FEA4B
:100C00004A0808EB0A039C004C443146204603F096
:100C10007EFC0CA90DF10700FFF7E8FC9DF80730FA
:100C2000E370A580A7602046FFF784FFA288E188D3
:100C3000A068FFF73DFED6E7E2789DF807309A42BC
:100C4000BAD19DF80F209DF830309A4208D1A760A4
:100C5000C9E73046FFF718FFE080FFF759FCB0E71F
:100C60000CA90DF10700FFF7C1FC9DF80730E370F8
:100C7000A7602046FFF7E2FEB5E700BF871000201F
:100C80003400002000B583B00C48FFF791FD0C4AFA
:100C900000231360536000200021C2E904010122F7
:100CA00008490A700849019100924FF4807207497F
:100CB000074802F077FE03B05DF804FBC445000866
:100CC0009010002024010020F0120020C8450008E8
:100CD000850E000808B5054B1B7803B908BD034B0A
:100CE00000221A700248FFF783FEF7E72401002074
:100CF000C445000808B551F8203003B1984708BD35
:100D0000034B5B6823FA00F000F00100704700BF5E
:100D100090100020034B1B6823FA00F000F0010044
:100D2000704700BF90100020074BD3F85832C340E3
:100D300013F0010F06D0044B9B6823FA00F000F07B
:100D400001007047002070479010002030B40A4B1B
:100D5000D3E904454000C0F12002A0F1200324FAA9
:100D600000F005FA02F2104325FA03F3184300F0ED
:100D7000030030BC704700BF9010002003490B688F
:100D8000012202FA00F003430B607047901000202C
:100D900010B4074B5A680124844022EA04025A60C6
:100DA0005A6881400A435A605DF8044B704700BF9F
:100DB0009010002010B4074B9A680124844022EA66
:100DC00004029A609A6881400A439A605DF8044B75
:100DD000704700BF901000202DE930080C4AD2E97E
:100DE00004BC400003238340DB430BEA03040CEA0A
:100DF000E375C2E90445D2E904BC81404BEA010431
:100E00004CEAE175C2E90445BDE83008704700BF0F
:100E10009010002070B5044616461D46FFF7DCFF13
:100E2000154904F10C02154BA3FB0606360921F8FF
:100E3000126004F12C02A3FB05352D0921F8125094
:100E4000012303FA04F2D1F8583223EA02039DF891
:100E50001020A2401343C1F8583204F13603059A1A
:100E600041F8232004F15603069A41F823207634F2
:100E7000079B41F8243070BD901000201F85EB5176
:100E80007047000030B583B092E02846FFF738FF86
:100E9000002844D04D492846FFF72CFF2846FFF78D
:100EA00039FFB8B104F14C03494A002122F813106C
:100EB00001341F2C75DCE5B22846FFF735FF00280A
:100EC000E3D042492846FFF715FF01212846FFF7E6
:100ED0005FFFEDE704F12C033D4A32F81330002B9D
:100EE000E6D004F14C023A4931F81220934206D977
:100EF00004F14C030132364921F81320D8E70021D0
:100F00002846FFF745FF324904F14C03002221F83F
:100F1000132001F5EC712846FFF7ECFEC8E72846E0
:100F2000FFF7F8FEB0B304F10C03294A32F813308E
:100F3000002BBDD004F14C02254931F81220934218
:100F400005D904F14C03013221F81320B0E7012147
:100F50002846FFF71DFF01212846FFF72BFF1C49FC
:100F600004F14C03002221F81320D8312846FFF762
:100F7000C1FE2846FFF7EAFE012808D020B102286A
:100F800096D100F064F993E7FFF77AFF90E700F05D
:100F900062F98DE704F14C030D4A002122F8131089
:100FA00086E70B4B00221A60322101A802F0DCFE1A
:100FB000084B1B7823B102F0D3FD0190002478E7A1
:100FC000002002F023FD03B030BD00BFE811002077
:100FD000901000202401002010B5094C01220221AC
:100FE000204600F034FC00224FF480714FF0904016
:100FF00000F02DFC00220121204600F028FC10BD4D
:101000000004004810B5094C00220221204600F0DF
:101010001EFC01224FF480714FF0904000F017FC4D
:1010200000220121204600F012FC10BD00040048FF
:1010300010B5094C00220221204600F008FC0022D5
:101040004FF480714FF0904000F001FC01221146F6
:10105000204600F0FCFB10BD0004004810B5094C10
:1010600000220221204600F0F2FB00224FF48071A2
:101070004FF0904000F0EBFB00220121204600F0F1
:10108000E6FB10BD00040048034B036054330B60C3
:1010900080231360704700BF2801002070B588B01E
:1010A000002403940494059406940794204BDA6C6E
:1010B00042F00102DA64DA6C02F001020192019A54
:1010C000DA6C42F00202DA64DB6C03F00203029392
:1010D000029B184E22460321304600F0B8FB224600
:1010E0004FF480714FF0904000F0B1FB5823039310
:1010F00004940223059303A94FF0904000F0E0FA16
:1011000003230393012504950594069403A930460F
:1011100000F0D6FA4FF48073039304950594069477
:1011200003A94FF0904000F0CBFA08B070BD00BFAB
:10113000001002400004004808B50948094B03604C
:101140004FF4E133436000238360C36003610C22EA
:1011500042618361C3610362436202F0B6F908BD74
:10116000441300200038014038B50D4C0D4B23606E
:101170000D4B63600025A5600123E3602561656177
:10118000A561E5612562204600F0DAFC294620468B
:1011900000F082FF2946204600F0ACFF38BD00BFBA
:1011A000F8120020005C0040EC9C901000B59FB04D
:1011B00013E010214FF0904000F042FB50B31E4B63
:1011C0001878FFF7DBFD08214FF0904000F038FB66
:1011D00060BB28211DA802F0C7FD02F0C1FC1D90D4
:1011E00010214FF0904000F02BFB0028E1D040216F
:1011F0004FF0904000F024FB0028DAD00F4C702212
:1012000004F11001684603F06FF994E80F00FFF74E
:1012100075FAD8E740214FF0904000F011FB00280C
:10122000D1D0074B1878FFF7A9FDCCE7FFF752FDA7
:10123000FFF714FFCDE700BF7C030020441300201C
:101240000000002008B5012002F0B1F9FBE708B565
:10125000FFF7C2FE08BD08B5FFF7D4FE08BD10B504
:10126000ACB0242200211CA803F049F900241694F4
:101270001794189419941A945422214601A803F043
:101280003EF910231B930122219260232393022312
:1012900025932692279228222892072229922A9380
:1012A0002B931BA801F044F80F23169303231793E5
:1012B000189419941A94042116A801F07FFB40F2A7
:1012C0000113019309940D9401A801F003FD4FF45B
:1012D000007000F043FF2CB010BD000000B58DB0D1
:1012E00000F05CF9FFF7BBFFFFF7D8FEFFF724FF24
:1012F000FFF73AFF50224FF47A612248FFF73EFA97
:10130000012400940223204A18212048FFF734FCCE
:10131000FFF736FBFFF7B6FC002601960094334634
:101320004FF480721A491B4802F03CFB1A4B1878A4
:101330001A4D03951A4B02930196009440F6B83368
:101340004FF47A720221FFF765FD164B187803956A
:1013500002960196009633464FF47A722146FFF7C3
:1013600059FD05AC104D0FCD0FC495E8070084E87A
:101370000700314605A802F0E4F80C4B186002F0B3
:10138000DBF8FEE7F8120020C445000890100020AA
:10139000D0450008AD1100087C0300203110000882
:1013A000051000080000002060450008F41200202D
:1013B00082B00A4B1A6E42F001021A661A6E02F0EF
:1013C00001020092009A9A6D42F080529A659B6DDC
:1013D00003F080530193019B02B07047001002405C
:1013E0002DE9F04188B000230393049305930693FD
:1013F000079302681F4B9A4202D008B0BDE8F08103
:101400001D4CE36C43F00103E364E36C03F0010360
:101410000093009BE36C43F00203E364E36C03F08E
:1014200002030193019B802303934FF01208CDF830
:10143000108001270597032606960425079503A922
:101440004FF0904000F03CF910230393CDF810804A
:1014500005970696079503A9084800F031F9A36D92
:1014600043F40003A365A36D03F400030293029BFE
:10147000C3E700BF005C00400010024000040048C9
:1014800000B589B000230393049305930693079353
:101490000268144B9A4202D009B05DF804FB03F5D0
:1014A00058431A6E42F480421A661A6E02F4804261
:1014B0000192019ADA6C42F00102DA64DB6C03F00B
:1014C00001030293029B4FF4C0630393022304932E
:1014D000032306930723079303A94FF0904000F0DE
:1014E000EFF8D9E7003801407047FEE7FEE7FEE776
:1014F000FEE7704708B500F061F802F0F5FC01283E
:1015000001D002F0D7FD08BD0F49D1F8883043F46F
:101510007003C1F888300D4B1A6842F001021A605E
:10152000002098601A6822F0A85222F410221A6053
:101530004FF48052DA601A6822F480221A609861AF
:101540004FF000638B60704700ED00E00010024038
:10155000104B1B780BB90120704710B504464FF4AF
:101560007A70B0FBF3F30C4A1068B0FBF3F000F0B4
:1015700091F868B90F2C01D901200AE00022214618
:101580004FF0FF3000F052F8024B5C60002000E0AA
:10159000012010BD080000200400002010B5032029
:1015A00000F032F80020FFF7D3FF10B101242046ED
:1015B00010BD0446FFF7FCFEF9E70000034B1B7863
:1015C000034A11680B441360704700BF08000020F5
:1015D000C4130020014B1868704700BFC4130020DB
:1015E00038B50446FFF7F6FF0546B4F1FF3F02D0D9
:1015F000044B1B781C44FFF7EDFF401BA042FAD3BD
:1016000038BD00BF08000020074AD36823F4E06318
:101610001B041B0C000200F4E060184340F0BF60A4
:1016200040F40030D060704700ED00E030B4174B5C
:10163000DB68C3F30223C3F10704042C28BF04248E
:101640001D1D062D18D9033B4FF0FF3505FA04F494
:1016500021EA0401994005FA03F322EA030319433E
:1016600000280BDB0901C9B200F1604000F56140C0
:1016700080F8001330BC70470023E5E700F00F004E
:101680000901C9B2024B1954F4E700BF00ED00E0B4
:1016900014ED00E00138B0F1807F0AD2064B5860AB
:1016A000064AF02182F823100020986007221A6071
:1016B00070470120704700BF10E000E000ED00E03F
:1016C000F0B583B0002396E086685F000325BD4037
:1016D00026EA0506CD68BD4035438560466826EAA2
:1016E00004064D68C5F300149C4034434460C5684B
:1016F0005F000324BC40E44325408E68BE402E4377
:10170000C6604D68022D01D0122D13D1DE080836B7
:1017100050F826E003F007054FEA850C0F2505FA7F
:101720000CF52EEA050E0D6905FA0CF545EA0E05D5
:1017300040F8265005682C404D6805F00305BD4073
:101740002C4304604C6814F0805F53D0384C256EF5
:1017500045F001052566246E04F001040194019C06
:101760009D08AE1C334C54F8267003F00304A60009
:101770000F24B44027EA0407B0F1904F51D02E4C0B
:10178000A04250D004F58064A04248D00724B44061
:101790003C430235274E46F82540284C2568D44363
:1017A00004EA05064F6817F4803F01D042EA0506B7
:1017B000224D2E606D6804EA05064F6817F4003F5D
:1017C00001D042EA05061D4D6E60AD6804EA0506CB
:1017D0004F6817F4801F01D042EA0506174DAE602E
:1017E000ED682C404E6816F4001F01D042EA050453
:1017F000124AD46001330A6832FA03F415D0012486
:101800009C402240F6D04D686E1E012E7FF65CAFE4
:10181000112D3FF459AF122D7FF469AF54E7022424
:10182000B5E70024B3E70124B1E703B0F0BD00BF82
:101830000010024000000140000400480004014084
:101840000369194201D100207047012070470AB98D
:10185000816270478161704703689A6912F0020FD4
:1018600001D000229A6203689A6912F0010F03D135
:101870009A6942F001029A61704770B4039E05684C
:101880006868740D04F4806444F07F7444F4583440
:1018900044F47F7444F0030420EA0400C1F3090116
:1018A00041EA0241194331430143696070BC70470A
:1018B00070B504460D46164603689B6913F0100F79
:1018C0001CD023689A6912F0200F19D1B5F1FF3F9F
:1018D000F7D0FFF77FFE801BA84201D8002DF0D182
:1018E000636C43F020036364202384F841300023B9
:1018F00084F8423084F84030012020E000201EE0CF
:101900001022DA6123682025DD612046FFF7A4FF5D
:101910002268536823F0FF7323F48B3323F4FF739F
:1019200023F001035360636C43F00403636484F8A1
:101930004150002384F8423084F84030012070BDCB
:1019400070B504460D46164623689B6913F0020FD6
:101950001DD1324629462046FFF7AAFFC8B9B5F186
:10196000FF3FF1D0FFF736FE801BA84201D8002DC3
:10197000EAD1636C43F020036364202384F8413090
:10198000002384F8423084F84030012000E0002039
:1019900070BD0120FCE7F8B505460F4616461C460B
:1019A0002B689B6937EA03030CBF01230023B34272
:1019B00018D1B4F1FF3FF3D0FFF70CFE069BC01A1D
:1019C000A04201D8002CEBD16B6C43F020036B6478
:1019D000202385F84130002385F8423085F84030D7
:1019E000012000E00020F8BD70B582B00446164624
:1019F0001D46184B00934FF08073EAB2FFF73DFF8E
:101A0000079A06992046FFF79BFFE8B9012D0ED1F2
:101A10002368F6B29E62079B0093069B00228021FA
:101A20002046FFF7B8FF034678B101230DE0236895
:101A3000320A9A62079A06992046FFF781FF38B961
:101A40002368F6B29E62E6E70123184602B070BD35
:101A50000123FAE70020008070B505460C461646C3
:101A60002B689B6913F0200F1AD132462146284675
:101A7000FFF71EFFB0B9FFF7ADFD801BA04201D8F4
:101A8000002CEDD16B6C43F020036B64202385F8B0
:101A90004130002385F8423085F84030012070BD88
:101AA0000020FCE70120FAE770B504460D46164613
:101AB00023689B6913F0040F3ED132462946204625
:101AC000FFF7F6FE0146002838D123689A6912F024
:101AD000200F13D1FFF77EFD801BA84201D8002DF7
:101AE000E6D1636C43F020036364202384F8413023
:101AF000002384F840300121084670BD9A6912F035
:101B0000040F02D0228D002AF6D12022DA6121684A
:101B10004B6823F0FF7323F48B3323F4FF7323F01C
:101B200001034B600023636484F8412084F8423051
:101B300084F840300121DFE70021DDE70121DBE708
:101B4000002859D010B5044690F84130002B43D0FE
:101B5000242384F841302268136823F001031360C2
:101B60006368226823F0706313612268936823F42A
:101B700000439360E368012B33D0A368226843F4E9
:101B800004439360E368022B31D02268536843F02A
:101B9000007343F4004353602268D36823F4004386
:101BA000D360236962691343A169226843EA012370
:101BB000D360E369216A22680B43136022681368CB
:101BC00043F00103136000206064202384F8413057
:101BD000206384F8420010BD80F84030FFF700FC1D
:101BE000B6E7A368226843F400439360CAE723681A
:101BF0004FF400625A60C8E7012070472DE9F043B6
:101C000083B090F84150EDB2202D40F0A48090F8C0
:101C10004040012C00F0A480984617460E4604462A
:101C20004FF0010980F84090FFF7D4FC0546009082
:101C300019234A464FF400412046FFF7ACFE002826
:101C400040F09080212384F84130102384F8423002
:101C5000002363646762A4F82A806363638D9BB288
:101C6000FF2B0AD9FF222285424B00934FF080734D
:101C700031462046FFF701FE18E0628D92B22285C0
:101C80003C4B00934FF00073D2B231462046FFF731
:101C9000F4FD0BE0628D92B22285002300934FF099
:101CA0000073D2B231462046FFF7E7FD638D9BB249
:101CB000002B33D02A460A992046FFF741FE002820
:101CC00052D1626A236812789A62636A013363624E
:101CD000638D013B9BB26385238D013B9BB22385C2
:101CE000628D92B2002AE1D0002BDFD100950A9BD1
:101CF000002280212046FFF74EFE002836D1638D5A
:101D00009BB2FF2BC6D9FF222285002300934FF000
:101D1000807331462046FFF7B0FDC7E72A460A998F
:101D20002046FFF799FE034610BB22682021D161AF
:101D30002068426822F0FF7222F48B3222F4FF7294
:101D400022F00102426084F84110002284F842200F
:101D500084F8402000E00223184603B0BDE8F08379
:101D60000223F9E70123F7E70123F5E70123F3E76E
:101D70000123F1E7002000802DE9F04383B090F8C3
:101D80004150EDB2202D40F0A48090F84040012C4D
:101D900000F0A480984617460E4604464FF001090D
:101DA00080F84090FFF716FC0546009019234A463C
:101DB0004FF400412046FFF7EEFD002840F09080F0
:101DC000222384F84130102384F8423000236364D6
:101DD0006762A4F82A806363638D9BB2FF2B0AD9E4
:101DE000FF222285424B00934FF0807331462046FC
:101DF000FFF743FD18E0628D92B222853C4B0093C1
:101E00004FF00073D2B231462046FFF736FD0BE0AB
:101E1000628D92B22285002300934FF00073D2B2FC
:101E200031462046FFF729FD638D9BB2002B33D04E
:101E30002A460A992046FFF737FE002852D1236828
:101E40005A6A636A1A70636A01336362238D013BC5
:101E50009BB22385628D013A92B26285628D92B205
:101E6000002AE1D0002BDFD100950A9B00228021BF
:101E70002046FFF790FD002836D1638D9BB2FF2BE3
:101E8000C6D9FF222285002300934FF0807331468C
:101E90002046FFF7F2FCC7E72A460A992046FFF7DB
:101EA000DBFD034610BB22682021D1612068426817
:101EB00022F0FF7222F48B3222F4FF7222F0010230
:101EC000426084F84110002284F8422084F84020C7
:101ED00000E00223184603B0BDE8F0830223F9E7CF
:101EE0000123F7E70123F5E70123F3E70123F1E7F6
:101EF000002400802DE9F04782B0BDF82C7090F8E6
:101F00004150EDB2202D40F0BA800A9CDCB1D7B12F
:101F100090F84040012C00F0B780984691460D465D
:101F200004464FF0010A80F840A0FFF753FB064635
:101F30000090192352464FF400412046FFF72BFD35
:101F400030B101239CE04FF400734364012397E018
:101F5000212384F84130402384F842300023636415
:101F60000A9A62626785636301960C9B00934346FD
:101F70004A4629462046FFF737FD70B9638D9BB26C
:101F8000FF2B0FD9FF222285002300934FF080738F
:101F900029462046FFF771FC21E0002384F84030F9
:101FA00053466DE0628D92B22285002300934FF07C
:101FB0000073D2B229462046FFF75FFC0FE0628D26
:101FC00092B22285002300934FF00073D2B22946CB
:101FD0002046FFF752FC638D9BB2002B32D0324675
:101FE0000C992046FFF7ACFC00284FD1626A2368A9
:101FF00012789A62636A01336362638D013B9BB21C
:102000006385238D013B9BB22385628D92B2002AAA
:10201000E1D0002BDFD100960C9B002280212046CE
:10202000FFF7B9FCA0BB638D9BB2FF2BC7D9FF2282
:102030002285002300934FF0807329462046FFF746
:102040001CFCC8E732460C992046FFF705FD034605
:1020500000BB22682021D1612068426822F0FF7213
:1020600022F48B3222F4FF7222F00102426084F8E3
:102070004110002284F8422084F8402000E002232E
:10208000184602B0BDE8F0870223F9E70123F7E71D
:102090000123F5E70123F3E790F84130DBB2202B71
:1020A00024D190F84030012B22D0012380F8403019
:1020B000242380F841300268136823F00103136081
:1020C0000268136823F4805313600268136819438D
:1020D00011600268136843F001031360202380F845
:1020E0004130002380F84030184670470220704786
:1020F0000220704790F84130DBB2202B22D190F8BB
:102100004030012B20D0012380F84030242380F878
:1021100041300268136823F00103136002681368FA
:1021200023F4706343EA012111600268136843F0ED
:1021300001031360202380F84130002380F84030F1
:10214000184670470220704702207047024B1868FB
:1021500000F4C060704700BF00700040B0F5007F21
:102160000FD01F4B1B6803F4C063B3F5806F34D0EE
:102170001B4A136823F4C06343F480631360002098
:102180007047174B1B6803F4C063B3F5007F22D080
:10219000134A136823F4C06343F400731360114BB4
:1021A0001A68322303FB02F30F4AA2FB03239B0CA2
:1021B000013300E0013B0A4A526912F4806F01D0FA
:1021C000002BF7D1064B5B6913F4806F01D100201F
:1021D000704703207047002070470020704700BF01
:1021E000007000400400002083DE1B4330B583B044
:1021F0000546204B9B6D13F0805F0BD0FFF7A6FFC9
:10220000B0F5007F17D0802D1FD82DD0702D2DD088
:1022100000211BE0174CA36D43F08053A365A36D11
:1022200003F080530193019BFFF790FFA36D23F010
:102230008053A365E4E7802D03D9A02D03D90221A3
:1022400004E0002102E0012100E003210A4A1368B2
:1022500023F007030B431360136803F007038B425B
:1022600006D0012003B030BD0221EFE70121EDE7E8
:102270000020F7E70010024000200240284A93683F
:10228000D26802F0030213F00C030AD00C2B06D024
:10229000042B1FD0082B20D00020024610E0012A7A
:1022A000F6D11F4A126812F0080F0CD11C4AD2F85E
:1022B0009420C2F303221B4951F8222043B100208D
:1022C0000C2B0DD07047164A1268C2F30312F2E7C6
:1022D0001046F5E714480022F2E714480022EFE721
:1022E0000F4BDB6803F00303022B15D0032B15D033
:1022F0000B4BD868C0F302100130D968C1F3062136
:1023000002FB01F2B2FBF0F2D868C0F34160013089
:102310004000B2FBF0F0D5E7034AE9E7034AE7E7FC
:10232000001002407C4500080024F40000127A00EE
:10233000002800F02783F0B583B00446AF4B9D68BA
:1023400005F00C05DE6806F00306036813F0100FB5
:102350005BD0E5B10C2D18D0A369002B00F0BC8038
:10236000A64A136843F001031360FFF733F90746E9
:10237000A24B1B6813F0020F40F09B80FFF72AF975
:10238000C01B0228F4D9032308E3012EE4D19B4BA0
:102390001B6813F0020F03D0A369002B00F0F58235
:1023A000206A964B1B6813F0080F5CD0934B1B6898
:1023B00003F0F00398425DD8904B1A6842F008028F
:1023C0001A601A6822F0F002216A0A431A605A68F9
:1023D00022F47F42E16942EA01225A60002D61D075
:1023E000FFF74CFF854B9B68C3F30313844AD35C10
:1023F00003F01F03D840834B1860834B1868FFF726
:10240000A7F80346002840F0C982236813F0010FA3
:1024100000F08180082D75D00C2D71D06368B3F564
:10242000803F00F09780B3F5A02F00F09980734BA8
:102430001A6822F480321A601A6822F480221A6024
:102440006368002B00F09980FFF7C4F807466B4BD8
:102450001B6813F4003F5ED1FFF7BCF8C01B642873
:10246000F5D903239AE2654BD3F894301B0903F0A6
:10247000F0039FE7FFF7BAFE002840F088825F4B29
:102480001A6842F008021A601A6822F0F002216A03
:102490000A431A605A6822F47F42E16942EA012243
:1024A0005A609DE7206AFFF7A1FE002898D001231B
:1024B00074E2524B1A6842F008021A601A6822F05D
:1024C000F002216A0A431A605A6822F47F42E169E5
:1024D00042EA01225A6098E7484A136823F0010350
:1024E0001360FFF777F80746444B1B6813F0020FA1
:1024F0008BD0FFF76FF8C01B0228F5D903234DE2FC
:10250000032E8BD13D4B1B6813F4003F03D063684F
:10251000002B00F03E82236813F0020F4FD0042DF1
:102520003CD00C2D38D0E368002B78D0334A1368A8
:1025300043F480731360FFF74DF806462F4B1B687A
:1025400013F4806F62D1FFF745F8801B0228F5D99C
:10255000032323E2294A136843F4803313606FE7AF
:1025600003F18043A3F53C331A6842F480221A60D9
:102570001A6842F480321A6062E7FFF72BF80746C8
:102580001E4B1B6813F4003FC5D0FFF723F8C01B98
:102590006428F5D9032301E2022EC4D1174B1B682E
:1025A00013F4806F03D0E368002B00F0F481134A2A
:1025B000536823F0FE43216943EA016353602368B3
:1025C00013F0080F56D06369002B3CD00B4AD2F8A9
:1025D000943043F00103C2F89430FEF7FBFF064647
:1025E000064BD3F8943013F0020F43D1FEF7F2FFFD
:1025F000801B0228F4D90323D0E100BF0010024061
:10260000AC450008040000200C000020B04A5368CC
:1026100023F0FE43216943EA01635360CFE7AC4AEC
:10262000136823F480731360FEF7D4FF0646A84BAB
:102630001B6813F4806FC2D0FEF7CCFF801B02280A
:10264000F5D90323AAE1A24AD2F8943023F001037A
:10265000C2F89430FEF7BEFF06469D4BD3F8943087
:1026600013F0020F06D0FEF7B5FF801B0228F4D945
:10267000032393E1236813F0040F7AD0944B9B6DEE
:1026800013F0805F0BD1924B9A6D42F080529A65A5
:102690009B6D03F080530193019B012600E000260F
:1026A0008C4B1B6813F4807F26D0A368012B37D096
:1026B000052B3DD0864BD3F8902022F00102C3F8C1
:1026C0009020D3F8902022F00402C3F89020A36851
:1026D000002B3BD0FEF77EFF07467D4BD3F89030B2
:1026E00013F0020F44D1FEF775FFC01B41F288338F
:1026F0009842F2D9032351E1764A136843F4807378
:102700001360FEF767FF0746724B1B6813F4807F68
:10271000CBD1FEF75FFFC01B0228F5D903233DE1B3
:102720006B4AD2F8903043F00103C2F89030CEE704
:10273000674BD3F8902042F00402C3F89020D3F8FE
:10274000902042F00102C3F89020C0E7FEF742FF5C
:1027500007465F4BD3F8903013F0020F08D0FEF716
:1027600039FFC01B41F288339842F2D9032315E1A7
:10277000E6B9236813F0200F35D0636AE3B1544AF9
:10278000D2F8983043F00103C2F89830FEF722FFE8
:1027900006464F4BD3F8983013F0020F23D1FEF7C3
:1027A00019FF801B0228F4D90323F7E0484A936DF0
:1027B00023F080539365DCE7454AD2F8983023F044
:1027C0000103C2F89830FEF705FF0646404BD3F8E8
:1027D000983013F0020F06D0FEF7FCFE801B022893
:1027E000F4D90323DAE0A36A002B00F0D680022B91
:1027F00027D00C2D00F0DB80354B1A6822F0807258
:102800001A601B6813F0006F04D1314AD36823F0BB
:102810000303D3602E4AD36823F0887323F48033F4
:10282000D360FEF7D7FE0446294B1B6813F0007FE8
:1028300000F0A680FEF7CEFE001B0228F4D9032389
:10284000ACE0234BDB6803F00301E26A914209D05C
:102850000C2D00F0A6801E4B1B6813F0806F3BD040
:1028600001239BE003F07002216B0139B2EB011FE1
:10287000EED103F4FE42616BB2EB012FE8D103F01D
:102880007842A16BB2EBC16FE2D103F4C001E26BFD
:102890005208013AB1EB425FDAD103F0C063226C17
:1028A0005208013AB3EB426FD2D1094B1B6813F0C7
:1028B000007F78D1064B1A6842F080721A60DA689D
:1028C00042F08072DA60FEF785FE044651E000BFF8
:1028D0000010024000700040364A136823F08073F5
:1028E0001360FEF777FE0546324B1B6813F0007F3E
:1028F00006D0FEF76FFE401B0228F5D903234DE0FA
:102900002C4AD3682C491940E36A206B013843EA0A
:102910000013606B43EA0023E06B4008013843EA90
:102920004053206C4008013843EA4063A06B43EAFF
:10293000C0630B43D360136843F080731360D368A4
:1029400043F08073D360FEF745FE0446194B1B68C5
:1029500013F0007F06D1FEF73DFE001B0228F5D9DB
:1029600003231BE0002319E0FEF734FE001B0228BE
:102970001BD8104B1B6813F0007FF5D000230DE02F
:1029800000230BE0012318467047012306E00123D2
:1029900004E0012302E0012300E00023184603B015
:1029A000F0BD0123FAE70023F8E70323F6E701234C
:1029B000F4E700BF001002408C809D01002800F069
:1029C0009B8070B504464E4B1B6803F007038B4297
:1029D0000CD24B4A136823F007030B4313601368B0
:1029E00003F007038B4201D0012070BD0D46236820
:1029F00013F0010F39D06368032B09D0022B26D0C6
:102A000063BB404A126812F0020F06D10120ECE7C6
:102A10003C4A126812F0007F70D03A498A6822F06E
:102A2000030213438B60FEF7D5FD0646354B9B68CA
:102A300003F00C036268B3EB820F16D0FEF7CAFDF9
:102A4000801B41F288339842F0D90320CDE72D4A0C
:102A5000126812F4003FE0D10120C6E7294A12684B
:102A600012F4806FD9D10120BFE7236813F0020F61
:102A700006D0244A936823F0F003A1680B439360C7
:102A80001F4B1B6803F00703AB420CD91C4A1368A9
:102A900023F007032B431360136803F00703AB42D3
:102AA00001D00120A1E7236813F0040F06D0154AD6
:102AB000936823F4E063E1680B439360236813F0A9
:102AC000080F07D00F4A936823F46053216943EA43
:102AD000C1039360FFF7D2FB0A4B9B68C3F3031358
:102AE000094AD35C03F01F03D840084B1860084B19
:102AF0001868FEF72DFD78E701207047012074E784
:102B00000020024000100240AC45000804000020F4
:102B10000C000020014B1868704700BF0400002023
:102B200008B5FFF7F7FF054B9B68C3F30223044A80
:102B3000D35C03F01F03D84008BD00BF0010024063
:102B4000BC45000808B5FFF7E5FF054B9B68C3F3DC
:102B5000C223044AD35C03F01F03D84008BD00BF62
:102B600000100240BC450008F8B5594BDB6813F073
:102B7000030F18D0564BDB6803F00303026893423F
:102B800002D001252846F8BD002A00F09F80504B56
:102B9000DB68C3F3021301334268934201D001257D
:102BA000F0E700251AE00368022B58D0032B5DD014
:102BB000012B01D001250FE0454A126812F0020FE7
:102BC00060D0434DEA6822F073024468013C43EA56
:102BD00004131343EB600025002DD3D10F460446A8
:102BE0003B4A136823F080631360FEF7F3FC06464C
:102BF000374B1B6813F0006F05D0FEF7EBFC801B12
:102C00000228F5D90325002DBCD1002F3CD1304935
:102C10000B6923F0784323F4FE43A068E268D206F0
:102C200042EA002213430B61294A136843F0806390
:102C30001360FEF7CFFC0646254B1B6813F0006FB0
:102C400005D1FEF7C7FC801B0228F5D90325002D0E
:102C500098D11F4A1369A1690B43136192E71C4A7B
:102C6000126812F4806FACD10125B5E7184A1268DA
:102C700012F4003FA5D1164A126812F4802FA0D199
:102C80000125A9E70125A7E7012F0FD01048026908
:102C900022F0C06222F4FE42A16863695B08013B36
:102CA0005B0643EA012313430361BDE70848026959
:102CB00022F4C00222F4FE42A16823695B08013BB2
:102CC0005B0543EA012313430361ADE7012559E79F
:102CD000001002402DE9F04182B00446036813F46D
:102CE000006F26D0C36BB3F5000F06D0B3F5400FCD
:102CF0001DD09BB1012637461DE0AE4AD36843F490
:102D00008033D3600027AB4AD2F8883023F44003E5
:102D1000E16B0B43C2F8883000260CE00021043040
:102D2000FFF722FF07460028EDD0064603E0002704
:102D3000E9E700263746236813F4003F6BD09D4B2C
:102D40009B6D13F0805F4CD19A4B9A6D42F080528C
:102D50009A659B6D03F080530193019B4FF001082E
:102D6000954A136843F480731360FEF733FC0546FD
:102D7000914B1B6813F4807F05D1FEF72BFC401BA1
:102D80000228F5D90327002F40D18A4BD3F8903081
:102D900013F4407315D0226D9A4212D0854AD2F8AE
:102DA000903023F44073D2F8901041F48031C2F88F
:102DB0009010D2F8901021F48031C2F89010C2F82F
:102DC000903013F0010F0FD1002F40F0C980794AE5
:102DD000D2F8903023F44073216D0B43C2F8903049
:102DE00015E04FF00008BBE7FEF7F4FB0546714B1A
:102DF000D3F8903013F0020FE6D1FEF7EBFB401B47
:102E000041F288339842F2D90327DDE73E46B8F114
:102E1000000F40F0A780236813F0010F08D0654A27
:102E2000D2F8883023F00303216A0B43C2F88830BC
:102E3000236813F0020F08D05E4AD2F8883023F0DE
:102E40000C03616A0B43C2F88830236813F0200F2B
:102E500008D0584AD2F8883023F44063A16A0B4363
:102E6000C2F88830236813F4007F08D0514AD2F8A2
:102E7000883023F44023616B0B43C2F88830236809
:102E800013F4806F08D04B4AD2F8883023F44013F3
:102E9000A16B0B43C2F88830236813F0400F08D0B1
:102EA000444AD2F8883023F44053E16A0B43C2F815
:102EB0008830236813F4807F08D03E4AD2F88830E7
:102EC00023F44033216B0B43C2F88830236813F49A
:102ED000005F0FD0374AD2F8883023F04063216C6E
:102EE0000B43C2F88830236CB3F1006F40D0B3F1CC
:102EF000806F42D0236813F4802F0FD02D4AD2F870
:102F0000883023F04063616C0B43C2F88830636CF7
:102F1000B3F1006F39D0B3F1806F3BD0236813F465
:102F2000804F0CD0234AD2F8883023F04053A16C54
:102F30000B43C2F88830A36CB3F1805F32D02368B2
:102F400013F4004F08D01B4AD2F8883023F0804396
:102F5000E16C0B43C2F88830304602B0BDE8F08126
:102F60003E4654E7134A936D23F08053936552E72E
:102F7000D36843F48013D360BCE70121201DFFF721
:102F8000F3FD0028B6D00646B4E7D36843F48013B7
:102F9000D360C3E70121201DFFF7E6FD0028BDD067
:102FA0000646BBE70221201DFFF7DEFD0028C6D044
:102FB0000646C4E700100240007000402DE9D848E2
:102FC0000446016883680269134342691343C26976
:102FD000134308688C4A024013430B60226853680D
:102FE00023F44053E1680B435360A1692268874B87
:102FF0009A4201D0236A1943936823F430630B4348
:1030000093602368824A93421CD0824A93422DD017
:103010007E4A934243D010227C498B425ED0E369C2
:10302000B3F5004F00F08C80082A00F2E780DFE85B
:1030300012F0B700CE00B500E500D100E500E500D4
:10304000E500D40002F55842D2F8882002F00302CD
:10305000032A09D8DFE802F002043C060122DBE77C
:103060000422D9E70822D7E71022D5E702F5E63295
:10307000D2F8882002F00C020C2A0ED8DFE802F009
:10308000070D0D0D090D0D0D2A0D0D0D0B00002264
:10309000C2E70422C0E70822BEE71022BCE702F51F
:1030A000C832D2F8882002F44062B2F5806F0BD0AB
:1030B00007D9B2F5006F0FD0B2F5406F06D10822E4
:1030C000AAE71AB90022A7E70422A5E71022A3E77E
:1030D0000222A1E702229FE702229DE7082A7FD869
:1030E000DFE802F0087E107E0D7E7E7E05004FF444
:1030F000004008E0FFF714FD28B9002062E0FFF768
:10310000BDF8F9E74448626802EB4203834269D89C
:10311000B0EB023F68D80023070E0602500816EBFA
:10312000000B47F1000C58466146FDF751F8A0F539
:1031300040723A4B9A4259D82368D860002041E047
:10314000082A55D8DFE802F00721055424545454C6
:103150002700314803E0FFF7E3FC00284AD062680B
:10316000530803EB4003B3FBF2F39BB2A3F110014E
:103170004FF6EF7291423FD823F00F02C3F34203A0
:1031800013432268D36000201CE0FFF7DBFCE4E778
:10319000FFF774F8E1E74FF40040E0E71E4802E073
:1031A000FFF7BEFC60B3636800EB5300B0FBF3F0C5
:1031B00080B2A0F110024FF6EF739A4222D8236832
:1031C000D8600020002323666366BDE8D888FFF737
:1031D000B9FCE7E7FFF752F8E4E74FF40040E2E715
:1031E0000120EFE70120EDE70120EBE70120E9E70F
:1031F0000120E7E70020E5E70120E3E70120E1E720
:103200000020DFE70120DDE7F369FFEF00800040E9
:1032100000380140004400400024F400FFFC0F008F
:10322000436A13F0010F06D00268536823F4003399
:10323000816A0B435360436A13F0020F06D00268A1
:10324000536823F48033C16A0B435360436A13F01D
:10325000040F06D00268536823F48023016B0B43EC
:103260005360436A13F0080F06D00268536823F4D2
:103270000043416B0B435360436A13F0100F06D0B9
:103280000268936823F48053816B0B439360436A15
:1032900013F0200F06D00268936823F40053C16B2B
:1032A0000B439360436A13F0400F0AD002685368DF
:1032B00023F48013016C0B435360036CB3F5801F40
:1032C0000BD0436A13F0800F06D00268536823F4D2
:1032D0000023816C0B43536070470268536823F4EA
:1032E000C003416C0B435360EBE72DE9F04104460A
:1032F0000F4616469846069D2368DB6937EA0303A6
:103300000CBF01230023B3423AD1B5F1FF3FF3D004
:10331000FEF760F9A0EB0800A8421FD8F5B12368BA
:103320001A6812F0040FE7D0DA6912F4006FE3D0E4
:103330004FF400621A622268136823F4D07313609A
:103340002268936823F00103936020236367A367D7
:10335000E367002384F87030032012E022681368CA
:1033600023F4D07313602268936823F00103936001
:1033700020236367A367002384F87030032000E0F4
:103380000020BDE8F0812DE9F04182B01E46436F78
:10339000202B55D104460D469046002955D0002AD1
:1033A00055D090F87030012B53D0012380F8703045
:1033B0000023C36721234367FEF70CF90746A4F8EF
:1033C0005080A4F85280A368B3F5805F05D04FF019
:1033D0000008002384F8703013E0236913B14FF024
:1033E0000008F6E7A8460025F3E738F8023B226814
:1033F000C3F308031385B4F85230013B9BB2A4F821
:103400005230B4F852309BB273B100963B46002262
:1034100080212046FFF769FFE8B9002DE5D0236839
:1034200015F8012B1A85E6E700963B46002240215D
:103430002046FFF75AFF034678B92022626700E072
:103440000223184602B0BDE8F0810123F9E7012309
:10345000F7E70223F5E70323F3E70323F1E730B5AA
:1034600083B004460023C367FEF7B4F8054623681B
:103470001B6813F0080F0CD123681B6813F0040FAE
:1034800015D120236367A367002084F8700003B080
:1034900030BD6FF07E430093034600224FF40011CD
:1034A0002046FFF722FF0028E6D00320EFE76FF069
:1034B0007E4300932B4600224FF480012046FFF705
:1034C00014FF0028DDD00320E1E768B310B50446FF
:1034D000436F03B3242363672268136823F0010357
:1034E00013602046FFF76AFD012813D0636ABBB959
:1034F0002268536823F4904353602268936823F052
:103500002A0393602268136843F001031360204686
:10351000FFF7A5FF10BD80F87030FDF7B1FFD9E7C8
:103520002046FFF77DFEE3E701207047842801D0A5
:10353000033070470020704708B500F0D5FA00202E
:1035400008BD2DE9F04387B004460F464569A5B193
:10355000866996B1D0F80480D0F80090B0F90800E0
:10356000FFF7E4FF22690296019500903B46494629
:10357000404600F0DDF9059013E065682668D4F850
:103580001080B4F90800FFF7D1FF05AB019300905C
:103590003B461FFA88F23146284600F003FA01281C
:1035A00003D1059807B0BDE8F0830020FAE708B51D
:1035B000034600B90123184600F028FC002008BD8E
:1035C00000F1080343604FF0FF328260C360036183
:1035D00000230360704700230361704743684B601A
:1035E0009A688A609A68516099600861036801333B
:1035F0000360704730B40D68B5F1FF3F02D000F1B1
:10360000080202E0026904E01A4653681C68AC42F2
:10361000FAD953684B6099608A6051600861036809
:103620000133036030BC7047036942688168916070
:103630008268416851605A68824206D00022026165
:103640001A68013A1A601868704782685A60F5E78C
:10365000074B9B6A1B6833B1054B9A6AD268D268E4
:103660005268DA627047024B4FF0FF32DA627047FD
:10367000800300202DE9F04780469946089D099F68
:103680000A9C266B02F18042013A06EB820626F084
:10369000070689B30A4600230F2B07D8D05CE11830
:1036A00081F83400D15C09B10133F5E7002384F8D7
:1036B0004330062D00D90625E56265644FF0000A07
:1036C000C4F848A0201DFFF786FF04F11800FFF79B
:1036D00082FF2461C5F10705A5616462C4F84CA0AE
:1036E00084F850A04A464146304600F04BFC20602A
:1036F00007B13C60BDE8F087002384F83430D8E798
:1037000070B5002407E004EB8402930010481844CD
:10371000FFF756FF0134062CF5D90E4C04F1BC0618
:103720003046FFF74DFF04F1D0052846FFF748FF6C
:1037300004F11400FFF744FF04F1E400FFF740FF39
:103740002046FFF73DFFA662C4F8F85070BD00BFE9
:10375000B00300208003002038B5054600F03AFC95
:10376000264BD3F8FC200132C3F8FC20D3F80031FB
:1037700073B1224BD3F804318BB9204BD3F800310D
:10378000DA6AEB6A9A420AD81C4BC3F8005106E089
:103790001A4BC3F80051D3F8FC30012B2AD0174C38
:1037A000D4F808310133C4F80831EB6A01229A4099
:1037B000D4F80C110A43C4F80C2104F1300003EBD7
:1037C00083039A00291D1044FFF708FF00F024FC32
:1037D000D4F804316BB1D4F80031DA6AEB6A9A425A
:1037E00007D2074B4FF080521A60BFF34F8FBFF3E1
:1037F0006F8F38BDFFF784FFD1E700BF8003002043
:1038000004ED00E010B5044690F8513033B9006B78
:1038100000F0E4FD204600F0E1FD10BD012B0AD0D0
:10382000022BFAD04FF0500383F31188BFF36F8F50
:10383000BFF34F8FFEE700F0D1FDEEE738B517E09C
:1038400000F0C8FB0D4CD4F8F030DD68281DFFF700
:10385000EBFED4F8FC30013BC4F8FC30D4F8103156
:10386000013BC4F8103100F0D7FB2846FFF7CAFF30
:10387000024BD3F81031002BE2D138BD8003002079
:1038800008B5FFF7DBFF064B1B6B012BF9D9054B86
:103890004FF080521A60BFF34F8FBFF36F8FF0E786
:1038A0008003002004ED00E070B504460E461F4B77
:1038B000D3F81451D3F800010430FFF7B5FE60B916
:1038C0001A4BD3F80021D16A012202FA01F1D3F890
:1038D0000C2122EA0102C3F80C21B4F1FF3F12D0FF
:1038E0002C44124BD3F800315C60A54214D80F4D24
:1038F000A86AD5F800110431FFF77CFEEB6AA342F9
:1039000012D9EC6210E0002EEAD00848D0F800117D
:103910000431FFF763FE07E0044BD3F8F800D3F857
:1039200000110431FFF766FE70BD00BF8003002068
:1039300070B586B00B9D0C9C45B94FF0500383F3D6
:103940001188BFF36F8FBFF34F8FFEE744B94FF07D
:10395000500383F31188BFF36F8FBFF34F8FFEE7E0
:1039600054260496049E542E08D04FF0500383F33F
:103970001188BFF36F8FBFF34F8FFEE7049E25635F
:10398000022584F8515000250395029405AD019558
:103990000A9D0095FFF76EFE2046FFF7DDFE0598B5
:1039A00006B070BD2DE9F04385B007468846154640
:1039B0009946900000F08CFC08B30646542000F0B5
:1039C00087FC0446B8B10663E4B1002384F85130A3
:1039D000039302940D9B01930C9B00934B462A4644
:1039E00041463846FFF746FE2046FFF7B5FE012068
:1039F00005B0BDE8F083304600F0F0FCE4E74FF09E
:103A0000FF30F5E74FF0FF30F2E7000070B50446F5
:103A100000F0E0FA002C3DD0261D3046FFF704FEF2
:103A200088B9E26A02EB820399002D4B0B441B6BB1
:103A30004BB9012303FA02F22949D1F80C3123EAE8
:103A40000203C1F80C31A36A1BB104F11800FFF79F
:103A5000EBFD234BD3F808210132C3F80821D3F83A
:103A60000031A3421AD01E4AD2F8FC30013BC2F802
:103A7000FC302046FFF7C6FEFFF7EAFD00F0CCFA67
:103A8000174BD3F8043123B1154BD3F80031A342BF
:103A900010D070BD124BD3F80041BDE7104D314638
:103AA00005F1E400FFF79AFDD5F810310133C5F8B0
:103AB0001031E3E70A4BD3F8183143B14FF050030C
:103AC00083F31188BFF36F8FBFF34F8FFEE7054B72
:103AD0004FF080521A60BFF34F8FBFF36F8FD8E75C
:103AE0008003002004ED00E010B588B000240594A8
:103AF000069407AA06A905A8FDF7C6FA059B029336
:103B0000069B019300942346079A0D490D48FFF741
:103B10000FFF08B908B010BD4FF0500383F31188B0
:103B2000BFF36F8FBFF34F8F074B4FF0FF32DA6257
:103B30000122C3F80421C3F8144100F0EDFAE9E7CB
:103B4000E44500088138000880030020034AD2F8C9
:103B500018310133C2F81831704700BF80030020CC
:103B6000014BD3F814017047800300202DE9F04188
:103B7000404BD3F81831002B6CD13E4BD3F8145185
:103B80000135C3F81451CDB99B6A1B6843B14FF09E
:103B9000500383F31188BFF36F8FBFF34F8FFEE79E
:103BA000344B9A6AD3F8F8109962C3F8F820D3F826
:103BB0001C210132C3F81C21FFF74AFD2D4BDB6AA3
:103BC000AB423DD900242B4AD2F80031DB6A03EB2B
:103BD000830399000A44136B012B42D9012440E06E
:103BE0000124244B9B6A1B6863B3224B9B6ADB68EE
:103BF000DE6873689D422AD306F104084046FFF749
:103C000013FDB36A1BB106F11800FFF70DFDF36A4F
:103C100001229A40174FD7F80C110A43C7F80C211C
:103C200007F1300003EB83039A0041461044FFF78D
:103C3000D5FCF26AD7F80031DB6A9A42D0D2D0E7DD
:103C40000024CEE70B4B4FF0FF32DA62BBE7094AA4
:103C5000D362B8E7074AD2F820310133C2F82031E5
:103C60000024044BD3F8243103B101242046BDE8DD
:103C7000F08100BF80030020394BD3F8183143B9DD
:103C80004FF0500383F31188BFF36F8FBFF34F8F53
:103C9000FEE770B500F09EF9314BD3F81821013AD8
:103CA000C3F81821D3F81831002B54D12C4BD3F87A
:103CB000FC3023B9002400F0AFF9204670BD002489
:103CC000274B5B692BB3264D2B6ADC6804F1180087
:103CD000FFF7AAFC261D3046FFF7A6FCE36A012287
:103CE0009A40D5F80C110A43C5F80C2105F13000B3
:103CF00003EB83039A0031461044FFF76FFCE26A3E
:103D0000D5F80031DB6A9A42DAD30122C5F82421C2
:103D1000D6E70CB1FFF79CFC114BD3F8204164B1FE
:103D2000FFF724FF18B10E4B0122C3F82421013CF8
:103D3000F6D10B4B0022C3F82021094BD3F82431D4
:103D40005BB1084B4FF080521A60BFF34F8FBFF347
:103D50006F8F0124AFE70024ADE70024ABE700BF7D
:103D60008003002004ED00E038B550B1054689B964
:103D70004FF0500383F31188BFF36F8FBFF34F8F62
:103D8000FEE74FF0500383F31188BFF36F8FBFF34B
:103D90004F8FFEE71B4BD3F8183143B14FF0500360
:103DA00083F31188BFF36F8FBFF34F8FFEE70C468D
:103DB000FFF7CCFE134BD3F814012A681444824257
:103DC00018D9A2420CD82C60FFF756FF38B90E4B19
:103DD0004FF080521A60BFF34F8FBFF36F8F38BD23
:103DE000A04201D32C60EFE72C600021201AFFF7DE
:103DF0005BFDE9E7A24201D8A04201D22C60F4E7C2
:103E00002C60E1E78003002004ED00E010B5B0B1C4
:103E100004460F4BD3F8183143B14FF0500383F3EE
:103E20001188BFF36F8FBFF34F8FFEE7FFF78EFE52
:103E300000212046FFF738FDFFF71EFF38B9054B7C
:103E40004FF080521A60BFF34F8FBFF36F8F10BDDA
:103E50008003002004ED00E0224BD3F8183123B199
:103E6000204B0122C3F8242170471E4A0023C2F8C8
:103E70002431D2F80C31B3FA83F3DBB2C3F11F0360
:103E800003EB830081000A44126B42B94FF05003E8
:103E900083F31188BFF36F8FBFF34F8FFEE710B42A
:103EA000104A9900CC18A0001044446B6468446325
:103EB0003032194488000830024494420BD009493A
:103EC00003EB83039A000A44536BDB68C1F80031AB
:103ED0005DF8044B704761680248142202FB03023C
:103EE0005163ECE780030020064BD3F804313BB16B
:103EF000044BD3F818310BB10020704702207047F3
:103F0000012070478003002082B0002301930D4BF5
:103F10001B68B3F1FF3F08D04FF0500383F31188C3
:103F2000BFF36F8FBFF34F8FFEE74FF0500383F364
:103F30001188BFF36F8FBFF34F8F019B002BFCD015
:103F400002B070471000002008480068006880F345
:103F500008884FF0000080F3148862B661B6BFF3A2
:103F60004F8FBFF36F8F00DF00BF000008ED00E050
:103F7000DFF80C00016841F4700101607047000037
:103F800088ED00E04FF0807340F8043C21F001011F
:103F900040F8081C054B40F80C3C40F8202C6FF012
:103FA000020340F8243C4438704700BF093F000832
:103FB000074B19680868B0E8F04F80F30988BFF331
:103FC0006F8F4FF0000080F311887047AFF30080CF
:103FD000800400204FF0500383F31188BFF36F8FEC
:103FE000BFF34F8F0A4A136801331360012B00D0CF
:103FF0007047084B1B6813F0FF0FF9D04FF05003C8
:1040000083F31188BFF36F8FBFF34F8FFEE700BFBD
:104010001000002004ED00E0094B1B6843B94FF08D
:10402000500383F31188BFF36F8FBFF34F8FFEE709
:10403000013B034A13600BB983F31188704700BF3B
:104040001000002000000000000000000000000040
:10405000EFF30980BFF36F8F154B1A681EF0100F36
:1040600008BF20ED108A20E9F04F10602DE909000B
:104070004FF0500080F31188BFF34F8FBFF36F8F65
:10408000FFF7EAFE4FF0000080F3118809BC1968C1
:104090000868B0E8F04F1EF0100F08BFB0EC108AAF
:1040A00080F30988BFF36F8F704700BFAFF30080C4
:1040B0008004002008B54FF0500383F31188BFF34C
:1040C0006F8FBFF34F8FFFF751FD18B1034B4FF0C8
:1040D00080521A60002383F3118808BD04ED00E0CC
:1040E000084A0023136008490B60084B1B68084905
:1040F000A1FB03139B09013B06490B6007231360D7
:10410000704700BF10E000E018E000E0040000206D
:10411000D34D621014E000E0394B1A68394B9A42D3
:104120000DD0374B1A68384B9A4211D14FF05003DB
:1041300083F31188BFF36F8FBFF34F8FFEE74FF00C
:10414000500383F31188BFF36F8FBFF34F8FFEE7E8
:1041500010B582B02D4B1A78D2B20192FF221A709C
:104160001B78DBB28DF803309DF8033003F0500369
:10417000274A13700723536009E0254A5368013B1F
:1041800053609DF803305B00DBB28DF803309DF87F
:10419000033013F0800FF0D11D4B5B68032B08D068
:1041A0004FF0500383F31188BFF36F8FBFF34F8F2E
:1041B000FEE71B0203F4E063154A5360019BDBB288
:1041C000124A1370134B1A6842F470021A601A688C
:1041D00042F070421A60FFF783FF00240E4B1C6010
:1041E000FFF7C6FE0D4A136843F040431360FFF724
:1041F000ABFEFFF731FEFFF787FE204602B010BD91
:1042000000ED00E071C20F4170C20F4100E400E018
:10421000A804002020ED00E01000002034EF00E0B2
:10422000144A12F0070F21D0D11D21F00701C1F56A
:104230003B63083313440A460E49C1F8B82B0020EB
:10424000C1F8BC0B1344083B23F00703C1F8C03B83
:1042500058601860981A50601360C1F8C40BC1F818
:10426000C80B4FF00043C1F8CC3B704740F6B83361
:10427000E2E700BFB004002010B4134B1A6882427A
:104280001CD359685C18844203D1406801445960CA
:10429000184641684418A24214D10C4CD4F8C04BC3
:1042A000A2420DD05268114441601A68126802603F
:1042B000984200D018605DF8044B70471346DDE764
:1042C0000460F5E70260F3E768100020B004002006
:1042D00070B50446FFF73AFC3F4BD3F8C03BC3B17F
:1042E0003D4BD3F8CC3B1C426CD1ACB1083414F03C
:1042F000070F11D024F00704083404F007035BB162
:104300004FF0500383F31188BFF36F8FBFF34F8FCC
:10431000FEE7FFF785FFE3E7002C55D02E4BD3F8DF
:10432000C83BA34252D32C4BD3F8B85B03F6B83347
:1043300001E02B4615466A68A24202D22A68002A8A
:10434000F7D1254AD2F8C02BAA4241D01E680836C0
:104350002A681A606B681B1B102B10D9281910F0E3
:10436000070F08D04FF0500383F31188BFF36F8F0E
:10437000BFF34F8FFEE743606C60FFF77DFF696816
:10438000154AD2F8C83B5B1AC2F8C83BD2F8C42B16
:10439000934202D2104AC2F8C43B0F4BD3F8CC3B35
:1043A0000B436B6000232B60FFF766FC16F0070FD2
:1043B00010D04FF0500383F31188BFF36F8FBFF31A
:1043C0004F8FFEE70026EFE70026EDE70026EBE73C
:1043D0000026E9E7304670BDB004002098B338B538
:1043E0000446A0F1080550F8042C1749D1F8CC1B5D
:1043F0000A4208D14FF0500383F31188BFF36F8F47
:10440000BFF34F8FFEE750F8080C40B14FF0500358
:1044100083F31188BFF36F8FBFF34F8FFEE722EA5C
:10442000010244F8042CFFF791FB54F8041C064ADF
:10443000D2F8C83B0B44C2F8C83B2846FFF71CFF24
:10444000FFF71AFC38BD7047B0040020DFF834D005
:10445000FDF75AF8002103E00B4B5B584350043141
:104460000A480B4B42189A42F6D30A4A02E000234C
:1044700042F8043B084B9A42F9D300F011F8FCF7DC
:104480002DFFFEE700000120084600080000002084
:104490001800002018000020C8130020FEE70000CC
:1044A00070B50D4E0D4CA41BA4100025A54209D1DA
:1044B0000B4E0C4C00F046F8A41BA4100025A5429E
:1044C00005D170BD56F8253098470135EEE756F80E
:1044D000253098470135F2E7F8450008F84500080F
:1044E000F8450008FC45000810B5431E0A449142F7
:1044F00000D110BD11F8014B03F8014FF7E702445A
:104500000346934200D1704703F8011BF9E70346C5
:1045100011F8012B03F8012B002AF9D1704710B5CF
:104520006AB10139841810F8013B11F8012F934248
:1045300003D1A04201D0002BF5D1981A10BD10462E
:10454000FCE70000F8B500BFF8BC08BC9E46704709
:10455000F8B500BFF8BC08BC9E46704700000000DC
:10456000D8450008451200080000000000000000C7
:10457000800000000000000000000000A086010094
:10458000400D0300801A060000350C0040420F0069
:1045900080841E0000093D0000127A000024F4000F
:1045A00000366E010048E801006CDC0200000000EB
:1045B00000000000010203040607080900000000D3
:1045C00001020304666C74004661756C747300002C
:1045D000427574746F6E000064656661756C745426
:1045E00061736B0049444C4500000000000000006E
:0845F00010BCFF7F0100000078
:0845F800B501000800000000FD
:08460000910100080000000018
:104608000100000000093D0001000000100000004A
:08461800AAAAAAAA00000000F2
:040000050800444D5E
:00000001FF
